{
  "address": "0x8166994d9ebBe5829EC86Bd81258149B87faCfd3",
  "abi": [
    {
      "inputs": [
        {
          "internalType": "contract BeethovenxToken",
          "name": "_beets",
          "type": "address"
        },
        {
          "internalType": "address",
          "name": "_treasuryAddress",
          "type": "address"
        },
        {
          "internalType": "uint256",
          "name": "_beetsPerBlock",
          "type": "uint256"
        },
        {
          "internalType": "uint256",
          "name": "_startBlock",
          "type": "uint256"
        }
      ],
      "stateMutability": "nonpayable",
      "type": "constructor"
    },
    {
      "anonymous": false,
      "inputs": [
        {
          "indexed": true,
          "internalType": "address",
          "name": "user",
          "type": "address"
        },
        {
          "indexed": true,
          "internalType": "uint256",
          "name": "pid",
          "type": "uint256"
        },
        {
          "indexed": false,
          "internalType": "uint256",
          "name": "amount",
          "type": "uint256"
        },
        {
          "indexed": true,
          "internalType": "address",
          "name": "to",
          "type": "address"
        }
      ],
      "name": "Deposit",
      "type": "event"
    },
    {
      "anonymous": false,
      "inputs": [
        {
          "indexed": true,
          "internalType": "address",
          "name": "user",
          "type": "address"
        },
        {
          "indexed": true,
          "internalType": "uint256",
          "name": "pid",
          "type": "uint256"
        },
        {
          "indexed": false,
          "internalType": "uint256",
          "name": "amount",
          "type": "uint256"
        },
        {
          "indexed": true,
          "internalType": "address",
          "name": "to",
          "type": "address"
        }
      ],
      "name": "EmergencyWithdraw",
      "type": "event"
    },
    {
      "anonymous": false,
      "inputs": [
        {
          "indexed": true,
          "internalType": "address",
          "name": "user",
          "type": "address"
        },
        {
          "indexed": true,
          "internalType": "uint256",
          "name": "pid",
          "type": "uint256"
        },
        {
          "indexed": false,
          "internalType": "uint256",
          "name": "amount",
          "type": "uint256"
        }
      ],
      "name": "Harvest",
      "type": "event"
    },
    {
      "anonymous": false,
      "inputs": [
        {
          "indexed": true,
          "internalType": "uint256",
          "name": "pid",
          "type": "uint256"
        },
        {
          "indexed": false,
          "internalType": "uint256",
          "name": "allocPoint",
          "type": "uint256"
        },
        {
          "indexed": true,
          "internalType": "contract IERC20",
          "name": "lpToken",
          "type": "address"
        },
        {
          "indexed": true,
          "internalType": "contract IRewarder",
          "name": "rewarder",
          "type": "address"
        }
      ],
      "name": "LogPoolAddition",
      "type": "event"
    },
    {
      "anonymous": false,
      "inputs": [
        {
          "indexed": true,
          "internalType": "uint256",
          "name": "pid",
          "type": "uint256"
        },
        {
          "indexed": false,
          "internalType": "uint256",
          "name": "allocPoint",
          "type": "uint256"
        },
        {
          "indexed": true,
          "internalType": "contract IRewarder",
          "name": "rewarder",
          "type": "address"
        },
        {
          "indexed": false,
          "internalType": "bool",
          "name": "overwrite",
          "type": "bool"
        }
      ],
      "name": "LogSetPool",
      "type": "event"
    },
    {
      "anonymous": false,
      "inputs": [
        {
          "indexed": true,
          "internalType": "uint256",
          "name": "pid",
          "type": "uint256"
        },
        {
          "indexed": false,
          "internalType": "uint256",
          "name": "lastRewardBlock",
          "type": "uint256"
        },
        {
          "indexed": false,
          "internalType": "uint256",
          "name": "lpSupply",
          "type": "uint256"
        },
        {
          "indexed": false,
          "internalType": "uint256",
          "name": "accBeetsPerShare",
          "type": "uint256"
        }
      ],
      "name": "LogUpdatePool",
      "type": "event"
    },
    {
      "anonymous": false,
      "inputs": [
        {
          "indexed": true,
          "internalType": "address",
          "name": "previousOwner",
          "type": "address"
        },
        {
          "indexed": true,
          "internalType": "address",
          "name": "newOwner",
          "type": "address"
        }
      ],
      "name": "OwnershipTransferred",
      "type": "event"
    },
    {
      "anonymous": false,
      "inputs": [
        {
          "indexed": true,
          "internalType": "address",
          "name": "oldAddress",
          "type": "address"
        },
        {
          "indexed": true,
          "internalType": "address",
          "name": "newAddress",
          "type": "address"
        }
      ],
      "name": "SetTreasuryAddress",
      "type": "event"
    },
    {
      "anonymous": false,
      "inputs": [
        {
          "indexed": true,
          "internalType": "address",
          "name": "user",
          "type": "address"
        },
        {
          "indexed": false,
          "internalType": "uint256",
          "name": "_beetsPerSec",
          "type": "uint256"
        }
      ],
      "name": "UpdateEmissionRate",
      "type": "event"
    },
    {
      "anonymous": false,
      "inputs": [
        {
          "indexed": true,
          "internalType": "address",
          "name": "user",
          "type": "address"
        },
        {
          "indexed": true,
          "internalType": "uint256",
          "name": "pid",
          "type": "uint256"
        },
        {
          "indexed": false,
          "internalType": "uint256",
          "name": "amount",
          "type": "uint256"
        },
        {
          "indexed": true,
          "internalType": "address",
          "name": "to",
          "type": "address"
        }
      ],
      "name": "Withdraw",
      "type": "event"
    },
    {
      "inputs": [],
      "name": "POOL_PERCENTAGE",
      "outputs": [
        {
          "internalType": "uint256",
          "name": "",
          "type": "uint256"
        }
      ],
      "stateMutability": "view",
      "type": "function"
    },
    {
      "inputs": [],
      "name": "TREASURY_PERCENTAGE",
      "outputs": [
        {
          "internalType": "uint256",
          "name": "",
          "type": "uint256"
        }
      ],
      "stateMutability": "view",
      "type": "function"
    },
    {
      "inputs": [
        {
          "internalType": "uint256",
          "name": "_allocPoint",
          "type": "uint256"
        },
        {
          "internalType": "contract IERC20",
          "name": "_lpToken",
          "type": "address"
        },
        {
          "internalType": "contract IRewarder",
          "name": "_rewarder",
          "type": "address"
        }
      ],
      "name": "add",
      "outputs": [],
      "stateMutability": "nonpayable",
      "type": "function"
    },
    {
      "inputs": [],
      "name": "beets",
      "outputs": [
        {
          "internalType": "contract BeethovenxToken",
          "name": "",
          "type": "address"
        }
      ],
      "stateMutability": "view",
      "type": "function"
    },
    {
      "inputs": [],
      "name": "beetsPerBlock",
      "outputs": [
        {
          "internalType": "uint256",
          "name": "",
          "type": "uint256"
        }
      ],
      "stateMutability": "view",
      "type": "function"
    },
    {
      "inputs": [
        {
          "internalType": "uint256",
          "name": "_pid",
          "type": "uint256"
        },
        {
          "internalType": "uint256",
          "name": "_amount",
          "type": "uint256"
        },
        {
          "internalType": "address",
          "name": "_to",
          "type": "address"
        }
      ],
      "name": "deposit",
      "outputs": [],
      "stateMutability": "nonpayable",
      "type": "function"
    },
    {
      "inputs": [
        {
          "internalType": "uint256",
          "name": "_pid",
          "type": "uint256"
        },
        {
          "internalType": "address",
          "name": "_to",
          "type": "address"
        }
      ],
      "name": "emergencyWithdraw",
      "outputs": [],
      "stateMutability": "nonpayable",
      "type": "function"
    },
    {
      "inputs": [
        {
          "internalType": "uint256",
          "name": "_pid",
          "type": "uint256"
        },
        {
          "internalType": "address",
          "name": "_to",
          "type": "address"
        }
      ],
      "name": "harvest",
      "outputs": [],
      "stateMutability": "nonpayable",
      "type": "function"
    },
    {
      "inputs": [
        {
          "internalType": "uint256[]",
          "name": "_pids",
          "type": "uint256[]"
        },
        {
          "internalType": "address",
          "name": "_to",
          "type": "address"
        }
      ],
      "name": "harvestAll",
      "outputs": [],
      "stateMutability": "nonpayable",
      "type": "function"
    },
    {
      "inputs": [
        {
          "internalType": "uint256",
          "name": "",
          "type": "uint256"
        }
      ],
      "name": "lpTokens",
      "outputs": [
        {
          "internalType": "contract IERC20",
          "name": "",
          "type": "address"
        }
      ],
      "stateMutability": "view",
      "type": "function"
    },
    {
      "inputs": [
        {
          "internalType": "uint256[]",
          "name": "pids",
          "type": "uint256[]"
        }
      ],
      "name": "massUpdatePools",
      "outputs": [],
      "stateMutability": "nonpayable",
      "type": "function"
    },
    {
      "inputs": [],
      "name": "owner",
      "outputs": [
        {
          "internalType": "address",
          "name": "",
          "type": "address"
        }
      ],
      "stateMutability": "view",
      "type": "function"
    },
    {
      "inputs": [
        {
          "internalType": "uint256",
          "name": "_pid",
          "type": "uint256"
        },
        {
          "internalType": "address",
          "name": "_user",
          "type": "address"
        }
      ],
      "name": "pendingBeets",
      "outputs": [
        {
          "internalType": "uint256",
          "name": "pending",
          "type": "uint256"
        }
      ],
      "stateMutability": "view",
      "type": "function"
    },
    {
      "inputs": [
        {
          "internalType": "uint256",
          "name": "",
          "type": "uint256"
        }
      ],
      "name": "poolInfo",
      "outputs": [
        {
          "internalType": "uint256",
          "name": "allocPoint",
          "type": "uint256"
        },
        {
          "internalType": "uint256",
          "name": "lastRewardBlock",
          "type": "uint256"
        },
        {
          "internalType": "uint256",
          "name": "accBeetsPerShare",
          "type": "uint256"
        }
      ],
      "stateMutability": "view",
      "type": "function"
    },
    {
      "inputs": [],
      "name": "poolLength",
      "outputs": [
        {
          "internalType": "uint256",
          "name": "",
          "type": "uint256"
        }
      ],
      "stateMutability": "view",
      "type": "function"
    },
    {
      "inputs": [],
      "name": "renounceOwnership",
      "outputs": [],
      "stateMutability": "nonpayable",
      "type": "function"
    },
    {
      "inputs": [
        {
          "internalType": "uint256",
          "name": "",
          "type": "uint256"
        }
      ],
      "name": "rewarder",
      "outputs": [
        {
          "internalType": "contract IRewarder",
          "name": "",
          "type": "address"
        }
      ],
      "stateMutability": "view",
      "type": "function"
    },
    {
      "inputs": [
        {
          "internalType": "uint256",
          "name": "_pid",
          "type": "uint256"
        },
        {
          "internalType": "uint256",
          "name": "_allocPoint",
          "type": "uint256"
        },
        {
          "internalType": "contract IRewarder",
          "name": "_rewarder",
          "type": "address"
        },
        {
          "internalType": "bool",
          "name": "overwrite",
          "type": "bool"
        }
      ],
      "name": "set",
      "outputs": [],
      "stateMutability": "nonpayable",
      "type": "function"
    },
    {
      "inputs": [],
      "name": "startBlock",
      "outputs": [
        {
          "internalType": "uint256",
          "name": "",
          "type": "uint256"
        }
      ],
      "stateMutability": "view",
      "type": "function"
    },
    {
      "inputs": [],
      "name": "totalAllocPoint",
      "outputs": [
        {
          "internalType": "uint256",
          "name": "",
          "type": "uint256"
        }
      ],
      "stateMutability": "view",
      "type": "function"
    },
    {
      "inputs": [
        {
          "internalType": "address",
          "name": "newOwner",
          "type": "address"
        }
      ],
      "name": "transferOwnership",
      "outputs": [],
      "stateMutability": "nonpayable",
      "type": "function"
    },
    {
      "inputs": [
        {
          "internalType": "address",
          "name": "_treasuryAddress",
          "type": "address"
        }
      ],
      "name": "treasury",
      "outputs": [],
      "stateMutability": "nonpayable",
      "type": "function"
    },
    {
      "inputs": [],
      "name": "treasuryAddress",
      "outputs": [
        {
          "internalType": "address",
          "name": "",
          "type": "address"
        }
      ],
      "stateMutability": "view",
      "type": "function"
    },
    {
      "inputs": [
        {
          "internalType": "uint256",
          "name": "_beetsPerBlock",
          "type": "uint256"
        }
      ],
      "name": "updateEmissionRate",
      "outputs": [],
      "stateMutability": "nonpayable",
      "type": "function"
    },
    {
      "inputs": [
        {
          "internalType": "uint256",
          "name": "_pid",
          "type": "uint256"
        }
      ],
      "name": "updatePool",
      "outputs": [
        {
          "components": [
            {
              "internalType": "uint256",
              "name": "allocPoint",
              "type": "uint256"
            },
            {
              "internalType": "uint256",
              "name": "lastRewardBlock",
              "type": "uint256"
            },
            {
              "internalType": "uint256",
              "name": "accBeetsPerShare",
              "type": "uint256"
            }
          ],
          "internalType": "struct BeethovenxMasterChef.PoolInfo",
          "name": "pool",
          "type": "tuple"
        }
      ],
      "stateMutability": "nonpayable",
      "type": "function"
    },
    {
      "inputs": [
        {
          "internalType": "uint256",
          "name": "",
          "type": "uint256"
        },
        {
          "internalType": "address",
          "name": "",
          "type": "address"
        }
      ],
      "name": "userInfo",
      "outputs": [
        {
          "internalType": "uint256",
          "name": "amount",
          "type": "uint256"
        },
        {
          "internalType": "uint256",
          "name": "rewardDebt",
          "type": "uint256"
        }
      ],
      "stateMutability": "view",
      "type": "function"
    },
    {
      "inputs": [
        {
          "internalType": "uint256",
          "name": "_pid",
          "type": "uint256"
        },
        {
          "internalType": "uint256",
          "name": "_amount",
          "type": "uint256"
        },
        {
          "internalType": "address",
          "name": "_to",
          "type": "address"
        }
      ],
      "name": "withdrawAndHarvest",
      "outputs": [],
      "stateMutability": "nonpayable",
      "type": "function"
    }
  ],
  "transactionHash": "0xc6c649488eecbebefff44d4f22043bfd8816f30dc8bebd7449b3a96ca4ddbf7a",
  "args": [
    "0xF24Bcf4d1e507740041C9cFd2DddB29585aDCe1e",
    "0xa1E849B1d6c2Fd31c63EEf7822e9E0632411ada7",
    "5050000000000000000",
    "18618000"
  ],
  "solcInputHash": "1a6082da8c049e421e3728a044545124",
  "bytecode": "0x60806040526000600a553480156200001657600080fd5b506040516200228b3803806200228b833981016040819052620000399162000156565b620000443362000106565b6753444835ec580000821115620000c75760405162461bcd60e51b815260206004820152603360248201527f6d6178696d756d20656d697373696f6e2072617465206f66203620626565747360448201527f2070657220626c6f636b20657863656564656400000000000000000000000000606482015260840160405180910390fd5b600180546001600160a01b039586166001600160a01b0319918216179091556002805494909516931692909217909255600391909155600b55620001bc565b600080546001600160a01b038381166001600160a01b0319831681178455604051919092169283917f8be0079c531659141344cd1fd0a4f28419497f9722a3daafe3b4186f6b6457e09190a35050565b600080600080608085870312156200016d57600080fd5b84516200017a81620001a3565b60208601519094506200018d81620001a3565b6040860151606090960151949790965092505050565b6001600160a01b0381168114620001b957600080fd5b50565b6120bf80620001cc6000396000f3fe608060405234801561001057600080fd5b50600436106101a95760003560e01c806351eb05a6116100f95780638dbdbe6d11610097578063c346253d11610071578063c346253d146103b2578063c5f956af146103c5578063d1abb907146103d8578063f2fde38b146103eb57600080fd5b80638dbdbe6d1461034557806393f1a40b14610358578063ab7de0981461039f57600080fd5b8063715018a6116100d3578063715018a6146103065780638519359d1461030e57806388bba42f146103215780638da5cb5b1461033457600080fd5b806351eb05a6146102b557806357a5b58c146102ea5780636a44e1f3146102fd57600080fd5b80631bb5e2dc116101665780632f940c70116101405780632f940c701461027d57806339e5f4ff1461029057806348cd4cb1146102995780634bf37df6146102a257600080fd5b80631bb5e2dc1461022c578063269db900146102575780632d809cb61461026a57600080fd5b8063081e3eda146101ae5780630ba84cd2146101c55780631526fe27146101da578063173b31d81461020857806317caf6f11461021057806318fccc7614610219575b600080fd5b6004545b6040519081526020015b60405180910390f35b6101d86101d3366004611dbf565b6103fe565b005b6101ed6101e8366004611dbf565b6104e2565b604080519384526020840192909252908201526060016101bc565b6101b2608081565b6101b2600a5481565b6101d8610227366004611df1565b610515565b61023f61023a366004611dbf565b610666565b6040516001600160a01b0390911681526020016101bc565b6101b2610265366004611df1565b610690565b6101d8610278366004611cec565b610853565b6101d861028b366004611df1565b6108c9565b6101b261036881565b6101b2600b5481565b6101d86102b0366004611d4b565b610a14565b6102c86102c3366004611dbf565b610a9e565b60408051825181526020808401519082015291810151908201526060016101bc565b6101d86102f8366004611d09565b610dcd565b6101b260035481565b6101d8610e0b565b60015461023f906001600160a01b031681565b6101d861032f366004611e86565b610e41565b6000546001600160a01b031661023f565b6101d8610353366004611e58565b611015565b61038a610366366004611df1565b60096020908152600092835260408084209091529082529020805460019091015482565b604080519283526020830191909152016101bc565b6101d86103ad366004611e21565b6111b3565b61023f6103c0366004611dbf565b6114ae565b60025461023f906001600160a01b031681565b6101d86103e6366004611e58565b6114be565b6101d86103f9366004611cec565b611708565b6000546001600160a01b031633146104315760405162461bcd60e51b815260040161042890611f1f565b60405180910390fd5b6753444835ec5800008111156104a55760405162461bcd60e51b815260206004820152603360248201527f6d6178696d756d20656d697373696f6e2072617465206f662036206265657473604482015272081c195c88189b1bd8dac8195e18d959591959606a1b6064820152608401610428565b600381905560405181815233907fe2492e003bbe8afa53088b406f0c1cb5d9e280370fc72a74cf116ffd343c40539060200160405180910390a250565b600481815481106104f257600080fd5b600091825260209091206003909102018054600182015460029092015490925083565b600061052083610a9e565b6000848152600960209081526040808320338452909152808220908301518154939450909264e8d4a510009161055591611fbd565b61055f9190611f9b565b905060008260010154826105739190611fdc565b600184018390559050801561058c5761058c85826117a3565b6000600887815481106105a1576105a1612050565b6000918252602090912001546001600160a01b03169050801561062657835460405163494dffe160e11b81526001600160a01b0383169163929bffc2916105f3918b9133918c91899190600401611f54565b600060405180830381600087803b15801561060d57600080fd5b505af1158015610621573d6000803e3d6000fd5b505050505b604051828152879033907f71bab65ced2e5750775a0613be067df48ef06cf92a496ebf7663ae06609249549060200160405180910390a350505050505050565b6005818154811061067657600080fd5b6000918252602090912001546001600160a01b0316905081565b600080600484815481106106a6576106a6612050565b600091825260208083208784526009825260408085206001600160a01b038916865290925290832060039290920201600281015460058054929550929390929091889081106106f7576106f7612050565b6000918252602090912001546040516370a0823160e01b81523060048201526001600160a01b03909116906370a082319060240160206040518083038186803b15801561074357600080fd5b505afa158015610757573d6000803e3d6000fd5b505050506040513d601f19601f8201168201806040525081019061077b9190611dd8565b905083600101544311801561078f57508015155b1561081b5760008460010154436107a69190611fdc565b600a5486546003549293506000926107be9085611fbd565b6107c89190611fbd565b6107d29190611f9b565b905060006103e86107e561036884611fbd565b6107ef9190611f9b565b90508361080164e8d4a5100083611fbd565b61080b9190611f9b565b6108159086611f83565b94505050505b6001830154835464e8d4a5100090610834908590611fbd565b61083e9190611f9b565b6108489190611fdc565b979650505050505050565b6000546001600160a01b0316331461087d5760405162461bcd60e51b815260040161042890611f1f565b600280546001600160a01b0319166001600160a01b03831690811790915560405181907f61885cdba916be748ff3e3f6f15e4206153b8ea3b7acabade9d04b4063a8351090600090a350565b6000828152600960209081526040808320338452909152812080548282556001820183905560088054929391928690811061090657610906612050565b6000918252602090912001546001600160a01b03169050801561098b5760405163494dffe160e11b81526001600160a01b0382169063929bffc290610958908890339089906000908190600401611f54565b600060405180830381600087803b15801561097257600080fd5b505af1158015610986573d6000803e3d6000fd5b505050505b6109bf8483600588815481106109a3576109a3612050565b6000918252602090912001546001600160a01b031691906118ee565b836001600160a01b031685336001600160a01b03167f2cac5e20e1541d836381527a43f651851e302817b71dc8e810284e69210c1c6b85604051610a0591815260200190565b60405180910390a45050505050565b60005b82811015610a9857600060096000868685818110610a3757610a37612050565b6020908102929092013583525081810192909252604090810160009081203382529092529020541115610a8657610a86848483818110610a7957610a79612050565b9050602002013583610515565b80610a908161201f565b915050610a17565b50505050565b610ac260405180606001604052806000815260200160008152602001600081525090565b60048281548110610ad557610ad5612050565b600091825260209182902060408051606081018252600390930290910180548352600181015493830184905260020154908201529150431115610dc857600060058381548110610b2757610b27612050565b6000918252602090912001546040516370a0823160e01b81523060048201526001600160a01b03909116906370a082319060240160206040518083038186803b158015610b7357600080fd5b505afa158015610b87573d6000803e3d6000fd5b505050506040513d601f19601f82011682018060405250810190610bab9190611dd8565b90508015610d38576000826020015143610bc59190611fdc565b600a548451600354929350600092610bdd9085611fbd565b610be79190611fbd565b610bf19190611f9b565b905060006103e8610c0461036884611fbd565b610c0e9190611f9b565b6001546002549192506001600160a01b03908116916340c10f1991166103e8610c38608087611fbd565b610c429190611f9b565b6040516001600160e01b031960e085901b1681526001600160a01b0390921660048301526024820152604401600060405180830381600087803b158015610c8857600080fd5b505af1158015610c9c573d6000803e3d6000fd5b50506001546040516340c10f1960e01b8152306004820152602481018590526001600160a01b0390911692506340c10f199150604401600060405180830381600087803b158015610cec57600080fd5b505af1158015610d00573d6000803e3d6000fd5b505050508364e8d4a5100082610d169190611fbd565b610d209190611f9b565b8560400151610d2f9190611f83565b60408601525050505b4360208301526004805483919085908110610d5557610d55612050565b60009182526020918290208351600390920201908155828201516001820155604092830151600290910155838101518483015183519182529181018490529182015283907fcb7325664a4a3b7c7223eefc492a97ca4fdf94d46884621e5a8fae5a04b2b9d29060600160405180910390a2505b919050565b8060005b81811015610a9857610dfa848483818110610dee57610dee612050565b90506020020135610a9e565b50610e048161201f565b9050610dd1565b6000546001600160a01b03163314610e355760405162461bcd60e51b815260040161042890611f1f565b610e3f6000611951565b565b6000546001600160a01b03163314610e6b5760405162461bcd60e51b815260040161042890611f1f565b813b151580610e8157506001600160a01b038216155b610edc5760405162461bcd60e51b815260206004820152602660248201527f7365743a207265776172646572206d75737420626520636f6e7472616374206f60448201526572207a65726f60d01b6064820152608401610428565b8260048581548110610ef057610ef0612050565b906000526020600020906003020160000154600a54610f0f9190611fdc565b610f199190611f83565b600a819055508260048581548110610f3357610f33612050565b60009182526020909120600390910201558015610f8d578160088581548110610f5e57610f5e612050565b9060005260206000200160006101000a8154816001600160a01b0302191690836001600160a01b031602179055505b80610fbf5760088481548110610fa557610fa5612050565b6000918252602090912001546001600160a01b0316610fc1565b815b6001600160a01b0316847f95895a6ab1df54420d241b55243258a33e61b2194db66c1179ec521aae8e186585846040516110079291909182521515602082015260400190565b60405180910390a350505050565b600061102084610a9e565b60008581526009602090815260408083206001600160a01b03871684529091529020805491925090611053908590611f83565b8155604082015164e8d4a510009061106b9086611fbd565b6110759190611f9b565b81600101546110849190611f83565b81600101819055506000600886815481106110a1576110a1612050565b6000918252602090912001546001600160a01b03169050801561112757815460405163494dffe160e11b81526001600160a01b0383169163929bffc2916110f4918a918991829160009190600401611f54565b600060405180830381600087803b15801561110e57600080fd5b505af1158015611122573d6000803e3d6000fd5b505050505b61115d33308760058a8154811061114057611140612050565b6000918252602090912001546001600160a01b03169291906119a1565b836001600160a01b031686336001600160a01b03167f02d7e648dd130fc184d383e55bb126ac4c9c60e8f94bf05acdf557ba2d540b47886040516111a391815260200190565b60405180910390a4505050505050565b6000546001600160a01b031633146111dd5760405162461bcd60e51b815260040161042890611f1f565b813b61123a5760405162461bcd60e51b815260206004820152602660248201527f6164643a204c5020746f6b656e206d75737420626520612076616c696420636f6044820152651b9d1c9858dd60d21b6064820152608401610428565b803b15158061125057506001600160a01b038116155b6112ab5760405162461bcd60e51b815260206004820152602660248201527f6164643a207265776172646572206d75737420626520636f6e7472616374206f60448201526572207a65726f60d01b6064820152608401610428565b6112b66006836119d9565b156112fb5760405162461bcd60e51b81526020600482015260156024820152741859190e88131408185b1c9958591e481859191959605a1b6044820152606401610428565b6000600b54431161130e57600b54611310565b435b905083600a546113209190611f83565b600a55600580546001810182556000919091527f036b6384b5eca791c62761152d0c79bb0604c104a5fb6f4eb0703f3154bb3db00180546001600160a01b0319166001600160a01b038516179055611379600684611a00565b506008805460018082019092557ff3f7a9fe364faab93b216da50a3214154f22a0a2b415b23a84c8169e8b636ee30180546001600160a01b0319166001600160a01b0385811691821790925560408051606081018252888152602081018681526000928201838152600480548089018255945291517f8a35acfbc15ff81a39ae7d344fd709f28e8600b4aa8c65c6b64bfe7fe36bd19b600390940293840155517f8a35acfbc15ff81a39ae7d344fd709f28e8600b4aa8c65c6b64bfe7fe36bd19c830155517f8a35acfbc15ff81a39ae7d344fd709f28e8600b4aa8c65c6b64bfe7fe36bd19d9091015560055490929186169161147591611fdc565b6040518781527f81ee0f8c5c46e2cb41984886f77a84181724abb86c32a5f6de539b07509d45e59060200160405180910390a450505050565b6008818154811061067657600080fd5b60006114c984610a9e565b600085815260096020908152604080832033845290915290208054919250908411156115435760405162461bcd60e51b815260206004820152602360248201527f63616e6e6f74207769746864726177206d6f7265207468616e206465706f73696044820152621d195960ea1b6064820152608401610428565b600064e8d4a510008360400151836000015461155f9190611fbd565b6115699190611f9b565b9050600082600101548261157d9190611fdc565b905064e8d4a510008460400151876115959190611fbd565b61159f9190611f9b565b6115a99083611fdc565b600184015582546115bb908790611fdc565b83556115c785826117a3565b6000600888815481106115dc576115dc612050565b6000918252602090912001546001600160a01b03169050801561166157835460405163494dffe160e11b81526001600160a01b0383169163929bffc29161162e918c9133918c91899190600401611f54565b600060405180830381600087803b15801561164857600080fd5b505af115801561165c573d6000803e3d6000fd5b505050505b611679868860058b815481106109a3576109a3612050565b856001600160a01b031688336001600160a01b03167f8166bf25f8a2b7ed3c85049207da4358d16edbed977d23fa2ee6f0dde3ec21328a6040516116bf91815260200190565b60405180910390a4604051828152889033907f71bab65ced2e5750775a0613be067df48ef06cf92a496ebf7663ae06609249549060200160405180910390a35050505050505050565b6000546001600160a01b031633146117325760405162461bcd60e51b815260040161042890611f1f565b6001600160a01b0381166117975760405162461bcd60e51b815260206004820152602660248201527f4f776e61626c653a206e6577206f776e657220697320746865207a65726f206160448201526564647265737360d01b6064820152608401610428565b6117a081611951565b50565b6001546040516370a0823160e01b81523060048201526000916001600160a01b0316906370a082319060240160206040518083038186803b1580156117e757600080fd5b505afa1580156117fb573d6000803e3d6000fd5b505050506040513d601f19601f8201168201806040525081019061181f9190611dd8565b9050808211156118b05760015460405163a9059cbb60e01b81526001600160a01b038581166004830152602482018490529091169063a9059cbb906044015b602060405180830381600087803b15801561187857600080fd5b505af115801561188c573d6000803e3d6000fd5b505050506040513d601f19601f82011682018060405250810190610a989190611da2565b60015460405163a9059cbb60e01b81526001600160a01b038581166004830152602482018590529091169063a9059cbb9060440161185e565b505050565b6040516001600160a01b0383166024820152604481018290526118e990849063a9059cbb60e01b906064015b60408051601f198184030181529190526020810180516001600160e01b03166001600160e01b031990931692909217909152611a15565b600080546001600160a01b038381166001600160a01b0319831681178455604051919092169283917f8be0079c531659141344cd1fd0a4f28419497f9722a3daafe3b4186f6b6457e09190a35050565b6040516001600160a01b0380851660248301528316604482015260648101829052610a989085906323b872dd60e01b9060840161191a565b6001600160a01b038116600090815260018301602052604081205415155b90505b92915050565b60006119f7836001600160a01b038416611ae7565b6000611a6a826040518060400160405280602081526020017f5361666545524332303a206c6f772d6c6576656c2063616c6c206661696c6564815250856001600160a01b0316611b369092919063ffffffff16565b8051909150156118e95780806020019051810190611a889190611da2565b6118e95760405162461bcd60e51b815260206004820152602a60248201527f5361666545524332303a204552433230206f7065726174696f6e20646964206e6044820152691bdd081cdd58d8d9595960b21b6064820152608401610428565b6000818152600183016020526040812054611b2e575081546001818101845560008481526020808220909301849055845484825282860190935260409020919091556119fa565b5060006119fa565b6060611b458484600085611b4f565b90505b9392505050565b606082471015611bb05760405162461bcd60e51b815260206004820152602660248201527f416464726573733a20696e73756666696369656e742062616c616e636520666f6044820152651c8818d85b1b60d21b6064820152608401610428565b843b611bfe5760405162461bcd60e51b815260206004820152601d60248201527f416464726573733a2063616c6c20746f206e6f6e2d636f6e74726163740000006044820152606401610428565b600080866001600160a01b03168587604051611c1a9190611ed0565b60006040518083038185875af1925050503d8060008114611c57576040519150601f19603f3d011682016040523d82523d6000602084013e611c5c565b606091505b509150915061084882828660608315611c76575081611b48565b825115611c865782518084602001fd5b8160405162461bcd60e51b81526004016104289190611eec565b60008083601f840112611cb257600080fd5b50813567ffffffffffffffff811115611cca57600080fd5b6020830191508360208260051b8501011115611ce557600080fd5b9250929050565b600060208284031215611cfe57600080fd5b8135611b4881612066565b60008060208385031215611d1c57600080fd5b823567ffffffffffffffff811115611d3357600080fd5b611d3f85828601611ca0565b90969095509350505050565b600080600060408486031215611d6057600080fd5b833567ffffffffffffffff811115611d7757600080fd5b611d8386828701611ca0565b9094509250506020840135611d9781612066565b809150509250925092565b600060208284031215611db457600080fd5b8151611b488161207b565b600060208284031215611dd157600080fd5b5035919050565b600060208284031215611dea57600080fd5b5051919050565b60008060408385031215611e0457600080fd5b823591506020830135611e1681612066565b809150509250929050565b600080600060608486031215611e3657600080fd5b833592506020840135611e4881612066565b91506040840135611d9781612066565b600080600060608486031215611e6d57600080fd5b83359250602084013591506040840135611d9781612066565b60008060008060808587031215611e9c57600080fd5b84359350602085013592506040850135611eb581612066565b91506060850135611ec58161207b565b939692955090935050565b60008251611ee2818460208701611ff3565b9190910192915050565b6020815260008251806020840152611f0b816040850160208701611ff3565b601f01601f19169190910160400192915050565b6020808252818101527f4f776e61626c653a2063616c6c6572206973206e6f7420746865206f776e6572604082015260600190565b9485526001600160a01b0393841660208601529190921660408401526060830191909152608082015260a00190565b60008219821115611f9657611f9661203a565b500190565b600082611fb857634e487b7160e01b600052601260045260246000fd5b500490565b6000816000190483118215151615611fd757611fd761203a565b500290565b600082821015611fee57611fee61203a565b500390565b60005b8381101561200e578181015183820152602001611ff6565b83811115610a985750506000910152565b60006000198214156120335761203361203a565b5060010190565b634e487b7160e01b600052601160045260246000fd5b634e487b7160e01b600052603260045260246000fd5b6001600160a01b03811681146117a057600080fd5b80151581146117a057600080fdfea2646970667358221220921e8c514f9f88cb565905ffaea407e91a7923cb95e2f06443ab1ac35c841aff64736f6c63430008070033",
  "devdoc": {
    "kind": "dev",
    "methods": {
      "harvest(uint256,address)": {
        "params": {
          "_pid": "The index of the pool. See `poolInfo`.",
          "_to": "Receiver of BEETS rewards."
        }
      },
      "massUpdatePools(uint256[])": {
        "params": {
          "pids": "Pool IDs of all to be updated. Make sure to update all active pools."
        }
      },
      "owner()": {
        "details": "Returns the address of the current owner."
      },
      "renounceOwnership()": {
        "details": "Leaves the contract without owner. It will not be possible to call `onlyOwner` functions anymore. Can only be called by the current owner. NOTE: Renouncing ownership will leave the contract without an owner, thereby removing any functionality that is only available to the owner."
      },
      "set(uint256,uint256,address,bool)": {
        "params": {
          "_allocPoint": "New AP of the pool.",
          "_pid": "The index of the pool. See `poolInfo`.",
          "_rewarder": "Address of the rewarder delegate.",
          "overwrite": "True if _rewarder should be `set`. Otherwise `_rewarder` is ignored."
        }
      },
      "transferOwnership(address)": {
        "details": "Transfers ownership of the contract to a new account (`newOwner`). Can only be called by the current owner."
      },
      "withdrawAndHarvest(uint256,uint256,address)": {
        "params": {
          "_amount": "LP token amount to withdraw.",
          "_pid": "The index of the pool. See `poolInfo`.",
          "_to": "Receiver of the LP tokens and BEETS rewards."
        }
      }
    },
    "version": 1
  },
  "userdoc": {
    "kind": "user",
    "methods": {
      "harvest(uint256,address)": {
        "notice": "Harvest proceeds for transaction sender to `_to`."
      },
      "lpTokens(uint256)": {
        "notice": "Address of the LP token for each MCV pool."
      },
      "massUpdatePools(uint256[])": {
        "notice": "Update reward variables for all pools. Be careful of gas spending!"
      },
      "rewarder(uint256)": {
        "notice": "Address of each `IRewarder` contract in MCV."
      },
      "withdrawAndHarvest(uint256,uint256,address)": {
        "notice": "Withdraw LP tokens from MCV and harvest proceeds for transaction sender to `_to`."
      }
    },
    "version": 1
  },
  "storageLayout": {
    "storage": [
      {
        "astId": 1784,
        "contract": "contracts/BeethovenxMasterChef.sol:BeethovenxMasterChef",
        "label": "_owner",
        "offset": 0,
        "slot": "0",
        "type": "t_address"
      },
      {
        "astId": 1974,
        "contract": "contracts/BeethovenxMasterChef.sol:BeethovenxMasterChef",
        "label": "beets",
        "offset": 0,
        "slot": "1",
        "type": "t_contract(BeethovenxToken)1917"
      },
      {
        "astId": 1976,
        "contract": "contracts/BeethovenxMasterChef.sol:BeethovenxMasterChef",
        "label": "treasuryAddress",
        "offset": 0,
        "slot": "2",
        "type": "t_address"
      },
      {
        "astId": 1978,
        "contract": "contracts/BeethovenxMasterChef.sol:BeethovenxMasterChef",
        "label": "beetsPerBlock",
        "offset": 0,
        "slot": "3",
        "type": "t_uint256"
      },
      {
        "astId": 1991,
        "contract": "contracts/BeethovenxMasterChef.sol:BeethovenxMasterChef",
        "label": "poolInfo",
        "offset": 0,
        "slot": "4",
        "type": "t_array(t_struct(PoolInfo)1971_storage)dyn_storage"
      },
      {
        "astId": 1996,
        "contract": "contracts/BeethovenxMasterChef.sol:BeethovenxMasterChef",
        "label": "lpTokens",
        "offset": 0,
        "slot": "5",
        "type": "t_array(t_contract(IERC20)77)dyn_storage"
      },
      {
        "astId": 1999,
        "contract": "contracts/BeethovenxMasterChef.sol:BeethovenxMasterChef",
        "label": "lpTokenAddresses",
        "offset": 0,
        "slot": "6",
        "type": "t_struct(AddressSet)905_storage"
      },
      {
        "astId": 2004,
        "contract": "contracts/BeethovenxMasterChef.sol:BeethovenxMasterChef",
        "label": "rewarder",
        "offset": 0,
        "slot": "8",
        "type": "t_array(t_contract(IRewarder)1948)dyn_storage"
      },
      {
        "astId": 2011,
        "contract": "contracts/BeethovenxMasterChef.sol:BeethovenxMasterChef",
        "label": "userInfo",
        "offset": 0,
        "slot": "9",
        "type": "t_mapping(t_uint256,t_mapping(t_address,t_struct(UserInfo)1964_storage))"
      },
      {
        "astId": 2014,
        "contract": "contracts/BeethovenxMasterChef.sol:BeethovenxMasterChef",
        "label": "totalAllocPoint",
        "offset": 0,
        "slot": "10",
        "type": "t_uint256"
      },
      {
        "astId": 2016,
        "contract": "contracts/BeethovenxMasterChef.sol:BeethovenxMasterChef",
        "label": "startBlock",
        "offset": 0,
        "slot": "11",
        "type": "t_uint256"
      }
    ],
    "types": {
      "t_address": {
        "encoding": "inplace",
        "label": "address",
        "numberOfBytes": "20"
      },
      "t_array(t_bytes32)dyn_storage": {
        "base": "t_bytes32",
        "encoding": "dynamic_array",
        "label": "bytes32[]",
        "numberOfBytes": "32"
      },
      "t_array(t_contract(IERC20)77)dyn_storage": {
        "base": "t_contract(IERC20)77",
        "encoding": "dynamic_array",
        "label": "contract IERC20[]",
        "numberOfBytes": "32"
      },
      "t_array(t_contract(IRewarder)1948)dyn_storage": {
        "base": "t_contract(IRewarder)1948",
        "encoding": "dynamic_array",
        "label": "contract IRewarder[]",
        "numberOfBytes": "32"
      },
      "t_array(t_struct(PoolInfo)1971_storage)dyn_storage": {
        "base": "t_struct(PoolInfo)1971_storage",
        "encoding": "dynamic_array",
        "label": "struct BeethovenxMasterChef.PoolInfo[]",
        "numberOfBytes": "32"
      },
      "t_bytes32": {
        "encoding": "inplace",
        "label": "bytes32",
        "numberOfBytes": "32"
      },
      "t_contract(BeethovenxToken)1917": {
        "encoding": "inplace",
        "label": "contract BeethovenxToken",
        "numberOfBytes": "20"
      },
      "t_contract(IERC20)77": {
        "encoding": "inplace",
        "label": "contract IERC20",
        "numberOfBytes": "20"
      },
      "t_contract(IRewarder)1948": {
        "encoding": "inplace",
        "label": "contract IRewarder",
        "numberOfBytes": "20"
      },
      "t_mapping(t_address,t_struct(UserInfo)1964_storage)": {
        "encoding": "mapping",
        "key": "t_address",
        "label": "mapping(address => struct BeethovenxMasterChef.UserInfo)",
        "numberOfBytes": "32",
        "value": "t_struct(UserInfo)1964_storage"
      },
      "t_mapping(t_bytes32,t_uint256)": {
        "encoding": "mapping",
        "key": "t_bytes32",
        "label": "mapping(bytes32 => uint256)",
        "numberOfBytes": "32",
        "value": "t_uint256"
      },
      "t_mapping(t_uint256,t_mapping(t_address,t_struct(UserInfo)1964_storage))": {
        "encoding": "mapping",
        "key": "t_uint256",
        "label": "mapping(uint256 => mapping(address => struct BeethovenxMasterChef.UserInfo))",
        "numberOfBytes": "32",
        "value": "t_mapping(t_address,t_struct(UserInfo)1964_storage)"
      },
      "t_struct(AddressSet)905_storage": {
        "encoding": "inplace",
        "label": "struct EnumerableSet.AddressSet",
        "members": [
          {
            "astId": 904,
            "contract": "contracts/BeethovenxMasterChef.sol:BeethovenxMasterChef",
            "label": "_inner",
            "offset": 0,
            "slot": "0",
            "type": "t_struct(Set)604_storage"
          }
        ],
        "numberOfBytes": "64"
      },
      "t_struct(PoolInfo)1971_storage": {
        "encoding": "inplace",
        "label": "struct BeethovenxMasterChef.PoolInfo",
        "members": [
          {
            "astId": 1966,
            "contract": "contracts/BeethovenxMasterChef.sol:BeethovenxMasterChef",
            "label": "allocPoint",
            "offset": 0,
            "slot": "0",
            "type": "t_uint256"
          },
          {
            "astId": 1968,
            "contract": "contracts/BeethovenxMasterChef.sol:BeethovenxMasterChef",
            "label": "lastRewardBlock",
            "offset": 0,
            "slot": "1",
            "type": "t_uint256"
          },
          {
            "astId": 1970,
            "contract": "contracts/BeethovenxMasterChef.sol:BeethovenxMasterChef",
            "label": "accBeetsPerShare",
            "offset": 0,
            "slot": "2",
            "type": "t_uint256"
          }
        ],
        "numberOfBytes": "96"
      },
      "t_struct(Set)604_storage": {
        "encoding": "inplace",
        "label": "struct EnumerableSet.Set",
        "members": [
          {
            "astId": 599,
            "contract": "contracts/BeethovenxMasterChef.sol:BeethovenxMasterChef",
            "label": "_values",
            "offset": 0,
            "slot": "0",
            "type": "t_array(t_bytes32)dyn_storage"
          },
          {
            "astId": 603,
            "contract": "contracts/BeethovenxMasterChef.sol:BeethovenxMasterChef",
            "label": "_indexes",
            "offset": 0,
            "slot": "1",
            "type": "t_mapping(t_bytes32,t_uint256)"
          }
        ],
        "numberOfBytes": "64"
      },
      "t_struct(UserInfo)1964_storage": {
        "encoding": "inplace",
        "label": "struct BeethovenxMasterChef.UserInfo",
        "members": [
          {
            "astId": 1961,
            "contract": "contracts/BeethovenxMasterChef.sol:BeethovenxMasterChef",
            "label": "amount",
            "offset": 0,
            "slot": "0",
            "type": "t_uint256"
          },
          {
            "astId": 1963,
            "contract": "contracts/BeethovenxMasterChef.sol:BeethovenxMasterChef",
            "label": "rewardDebt",
            "offset": 0,
            "slot": "1",
            "type": "t_uint256"
          }
        ],
        "numberOfBytes": "64"
      },
      "t_uint256": {
        "encoding": "inplace",
        "label": "uint256",
        "numberOfBytes": "32"
      }
    }
  }
}