{
  "address": "0x1098D1712592Bf4a3d73e5fD29Ae0da6554cd39f",
  "abi": [
    {
      "inputs": [
        {
          "internalType": "contract IERC20",
          "name": "_rewardToken",
          "type": "address"
        },
        {
          "internalType": "uint256",
          "name": "_rewardPerSecond",
          "type": "uint256"
        },
        {
          "internalType": "address",
          "name": "_MASTERCHEF",
          "type": "address"
        }
      ],
      "stateMutability": "nonpayable",
      "type": "constructor"
    },
    {
      "anonymous": false,
      "inputs": [],
      "name": "LogInit",
      "type": "event"
    },
    {
      "anonymous": false,
      "inputs": [
        {
          "indexed": true,
          "internalType": "address",
          "name": "user",
          "type": "address"
        },
        {
          "indexed": true,
          "internalType": "uint256",
          "name": "pid",
          "type": "uint256"
        },
        {
          "indexed": false,
          "internalType": "uint256",
          "name": "amount",
          "type": "uint256"
        },
        {
          "indexed": true,
          "internalType": "address",
          "name": "to",
          "type": "address"
        }
      ],
      "name": "LogOnReward",
      "type": "event"
    },
    {
      "anonymous": false,
      "inputs": [
        {
          "indexed": true,
          "internalType": "uint256",
          "name": "pid",
          "type": "uint256"
        },
        {
          "indexed": false,
          "internalType": "uint256",
          "name": "allocPoint",
          "type": "uint256"
        }
      ],
      "name": "LogPoolAddition",
      "type": "event"
    },
    {
      "anonymous": false,
      "inputs": [
        {
          "indexed": false,
          "internalType": "uint256",
          "name": "rewardPerSecond",
          "type": "uint256"
        }
      ],
      "name": "LogRewardPerSecond",
      "type": "event"
    },
    {
      "anonymous": false,
      "inputs": [
        {
          "indexed": true,
          "internalType": "uint256",
          "name": "pid",
          "type": "uint256"
        },
        {
          "indexed": false,
          "internalType": "uint256",
          "name": "allocPoint",
          "type": "uint256"
        }
      ],
      "name": "LogSetPool",
      "type": "event"
    },
    {
      "anonymous": false,
      "inputs": [
        {
          "indexed": true,
          "internalType": "uint256",
          "name": "pid",
          "type": "uint256"
        },
        {
          "indexed": false,
          "internalType": "uint256",
          "name": "lastRewardTime",
          "type": "uint256"
        },
        {
          "indexed": false,
          "internalType": "uint256",
          "name": "lpSupply",
          "type": "uint256"
        },
        {
          "indexed": false,
          "internalType": "uint256",
          "name": "accRewardTokenPerShare",
          "type": "uint256"
        }
      ],
      "name": "LogUpdatePool",
      "type": "event"
    },
    {
      "anonymous": false,
      "inputs": [
        {
          "indexed": true,
          "internalType": "address",
          "name": "previousOwner",
          "type": "address"
        },
        {
          "indexed": true,
          "internalType": "address",
          "name": "newOwner",
          "type": "address"
        }
      ],
      "name": "OwnershipTransferred",
      "type": "event"
    },
    {
      "inputs": [],
      "name": "MASTERCHEF",
      "outputs": [
        {
          "internalType": "address",
          "name": "",
          "type": "address"
        }
      ],
      "stateMutability": "view",
      "type": "function"
    },
    {
      "inputs": [
        {
          "internalType": "uint256",
          "name": "pid",
          "type": "uint256"
        },
        {
          "internalType": "uint256",
          "name": "allocPoint",
          "type": "uint256"
        }
      ],
      "name": "add",
      "outputs": [],
      "stateMutability": "nonpayable",
      "type": "function"
    },
    {
      "inputs": [
        {
          "internalType": "address",
          "name": "token",
          "type": "address"
        },
        {
          "internalType": "address",
          "name": "withdrawTo",
          "type": "address"
        }
      ],
      "name": "emergencyWithdraw",
      "outputs": [],
      "stateMutability": "nonpayable",
      "type": "function"
    },
    {
      "inputs": [
        {
          "internalType": "uint256[]",
          "name": "pids",
          "type": "uint256[]"
        }
      ],
      "name": "massUpdatePools",
      "outputs": [],
      "stateMutability": "nonpayable",
      "type": "function"
    },
    {
      "inputs": [
        {
          "internalType": "uint256",
          "name": "",
          "type": "uint256"
        }
      ],
      "name": "masterchefPoolIds",
      "outputs": [
        {
          "internalType": "uint256",
          "name": "",
          "type": "uint256"
        }
      ],
      "stateMutability": "view",
      "type": "function"
    },
    {
      "inputs": [
        {
          "internalType": "uint256",
          "name": "pid",
          "type": "uint256"
        },
        {
          "internalType": "address",
          "name": "userAddress",
          "type": "address"
        },
        {
          "internalType": "address",
          "name": "recipient",
          "type": "address"
        },
        {
          "internalType": "uint256",
          "name": "",
          "type": "uint256"
        },
        {
          "internalType": "uint256",
          "name": "newLpAmount",
          "type": "uint256"
        }
      ],
      "name": "onBeetsReward",
      "outputs": [],
      "stateMutability": "nonpayable",
      "type": "function"
    },
    {
      "inputs": [],
      "name": "owner",
      "outputs": [
        {
          "internalType": "address",
          "name": "",
          "type": "address"
        }
      ],
      "stateMutability": "view",
      "type": "function"
    },
    {
      "inputs": [
        {
          "internalType": "uint256",
          "name": "_pid",
          "type": "uint256"
        },
        {
          "internalType": "address",
          "name": "_user",
          "type": "address"
        }
      ],
      "name": "pendingToken",
      "outputs": [
        {
          "internalType": "uint256",
          "name": "pending",
          "type": "uint256"
        }
      ],
      "stateMutability": "view",
      "type": "function"
    },
    {
      "inputs": [
        {
          "internalType": "uint256",
          "name": "pid",
          "type": "uint256"
        },
        {
          "internalType": "address",
          "name": "user",
          "type": "address"
        },
        {
          "internalType": "uint256",
          "name": "",
          "type": "uint256"
        }
      ],
      "name": "pendingTokens",
      "outputs": [
        {
          "internalType": "contract IERC20[]",
          "name": "rewardTokens",
          "type": "address[]"
        },
        {
          "internalType": "uint256[]",
          "name": "rewardAmounts",
          "type": "uint256[]"
        }
      ],
      "stateMutability": "view",
      "type": "function"
    },
    {
      "inputs": [
        {
          "internalType": "uint256",
          "name": "",
          "type": "uint256"
        }
      ],
      "name": "poolInfo",
      "outputs": [
        {
          "internalType": "uint256",
          "name": "accRewardTokenPerShare",
          "type": "uint256"
        },
        {
          "internalType": "uint256",
          "name": "lastRewardTime",
          "type": "uint256"
        },
        {
          "internalType": "uint256",
          "name": "allocPoint",
          "type": "uint256"
        }
      ],
      "stateMutability": "view",
      "type": "function"
    },
    {
      "inputs": [],
      "name": "poolLength",
      "outputs": [
        {
          "internalType": "uint256",
          "name": "pools",
          "type": "uint256"
        }
      ],
      "stateMutability": "view",
      "type": "function"
    },
    {
      "inputs": [],
      "name": "renounceOwnership",
      "outputs": [],
      "stateMutability": "nonpayable",
      "type": "function"
    },
    {
      "inputs": [],
      "name": "rewardPerSecond",
      "outputs": [
        {
          "internalType": "uint256",
          "name": "",
          "type": "uint256"
        }
      ],
      "stateMutability": "view",
      "type": "function"
    },
    {
      "inputs": [],
      "name": "rewardToken",
      "outputs": [
        {
          "internalType": "contract IERC20",
          "name": "",
          "type": "address"
        }
      ],
      "stateMutability": "view",
      "type": "function"
    },
    {
      "inputs": [
        {
          "internalType": "uint256",
          "name": "pid",
          "type": "uint256"
        },
        {
          "internalType": "uint256",
          "name": "allocPoint",
          "type": "uint256"
        }
      ],
      "name": "set",
      "outputs": [],
      "stateMutability": "nonpayable",
      "type": "function"
    },
    {
      "inputs": [
        {
          "internalType": "uint256",
          "name": "_rewardPerSecond",
          "type": "uint256"
        }
      ],
      "name": "setRewardPerSecond",
      "outputs": [],
      "stateMutability": "nonpayable",
      "type": "function"
    },
    {
      "inputs": [
        {
          "internalType": "address",
          "name": "newOwner",
          "type": "address"
        }
      ],
      "name": "transferOwnership",
      "outputs": [],
      "stateMutability": "nonpayable",
      "type": "function"
    },
    {
      "inputs": [
        {
          "internalType": "uint256",
          "name": "pid",
          "type": "uint256"
        }
      ],
      "name": "updatePool",
      "outputs": [
        {
          "components": [
            {
              "internalType": "uint256",
              "name": "accRewardTokenPerShare",
              "type": "uint256"
            },
            {
              "internalType": "uint256",
              "name": "lastRewardTime",
              "type": "uint256"
            },
            {
              "internalType": "uint256",
              "name": "allocPoint",
              "type": "uint256"
            }
          ],
          "internalType": "struct TimeBasedRewarder.PoolInfo",
          "name": "pool",
          "type": "tuple"
        }
      ],
      "stateMutability": "nonpayable",
      "type": "function"
    },
    {
      "inputs": [
        {
          "internalType": "uint256",
          "name": "",
          "type": "uint256"
        },
        {
          "internalType": "address",
          "name": "",
          "type": "address"
        }
      ],
      "name": "userInfo",
      "outputs": [
        {
          "internalType": "uint256",
          "name": "amount",
          "type": "uint256"
        },
        {
          "internalType": "uint256",
          "name": "rewardDebt",
          "type": "uint256"
        }
      ],
      "stateMutability": "view",
      "type": "function"
    }
  ],
  "transactionHash": "0x07b77540b22df0fc20fac073f94ffdd59010661200f15a77adc0d7a4d97d507e",
  "args": [
    "0x2aD402655243203fcfa7dCB62F8A08cc2BA88ae0",
    "32150205761317000",
    "0x8166994d9ebBe5829EC86Bd81258149B87faCfd3"
  ],
  "solcInputHash": "6e18f337ba0fa2dfe7bf19d1778e86be",
  "bytecode": "0x60c06040523480156200001157600080fd5b5060405162001acc38038062001acc8339810160408190526200003491620000b5565b6200003f3362000065565b6001600160601b0319606093841b811660805260059290925590911b1660a05262000116565b600080546001600160a01b038381166001600160a01b0319831681178455604051919092169283917f8be0079c531659141344cd1fd0a4f28419497f9722a3daafe3b4186f6b6457e09190a35050565b600080600060608486031215620000cb57600080fd5b8351620000d881620000fd565b602085015160408601519194509250620000f281620000fd565b809150509250925092565b6001600160a01b03811681146200011357600080fd5b50565b60805160601c60a05160601c61193d6200018f600039600081816102f8015281816104f8015281816105890152818161088c015281816109250152610de8015260008181610332015281816106d60152818161077401528181610ee201528181610f800152818161103d01526110e5015261193d6000f3fe608060405234801561001057600080fd5b50600436106101215760003560e01c8063715018a6116100ad57806393f1a40b1161007157806393f1a40b1461028b578063d63b3c49146102d2578063e3692c36146102f3578063f2fde38b1461031a578063f7c618c11461032d57600080fd5b8063715018a61461022f578063771602f7146102375780638da5cb5b1461024a5780638f10369a1461026f578063929bffc21461027857600080fd5b806348e43af4116100f457806348e43af4146101ae57806351eb05a6146101c157806357a5b58c146101f65780636382d9ad1461020957806366da58151461021c57600080fd5b8063081e3eda146101265780631526fe271461013d5780631ab06ee5146101865780631c6717631461019b575b600080fd5b6002545b6040519081526020015b60405180910390f35b61016b61014b366004611604565b600160208190526000918252604090912080549181015460029091015483565b60408051938452602084019290925290820152606001610134565b6101996101943660046116e5565b610354565b005b61012a6101a9366004611604565b61045d565b61012a6101bc366004611636565b61047e565b6101d46101cf366004611604565b610804565b6040805182518152602080840151908201529181015190820152606001610134565b610199610204366004611550565b610a95565b610199610217366004611517565b610ad9565b61019961022a366004611604565b610c07565b610199610c6c565b6101996102453660046116e5565b610ca2565b6000546001600160a01b03165b6040516001600160a01b039091168152602001610134565b61012a60055481565b61019961028636600461165b565b610ddd565b6102bd610299366004611636565b60036020908152600092835260408084209091529082529020805460019091015482565b60408051928352602083019190915201610134565b6102e56102e03660046116ad565b6110bc565b604051610134929190611723565b6102577f000000000000000000000000000000000000000000000000000000000000000081565b6101996103283660046114fa565b611188565b6102577f000000000000000000000000000000000000000000000000000000000000000081565b6000546001600160a01b031633146103875760405162461bcd60e51b815260040161037e906117da565b60405180910390fd5b600082815260016020819052604090912001546103dc5760405162461bcd60e51b8152602060048201526013602482015272141bdbdb08191bd95cc81b9bdd08195e1a5cdd606a1b604482015260640161037e565b60008281526001602052604090206002015460045482916103fc91611868565b610406919061180f565b600455600082815260016020526040908190206002018290555182907f942cc7e17a17c164bd977f32ab8c54265d5b9d481e4e352bf874f1e568874e7c906104519084815260200190565b60405180910390a25050565b6002818154811061046d57600080fd5b600091825260209091200154905081565b60008281526001602081815260408084208151606081018352815481529381015492840183905260020154908301526104ba57600091506107fd565b60008481526003602090815260408083206001600160a01b0387811685529252808320845191516306ed78b760e21b815260048101899052909391927f00000000000000000000000000000000000000000000000000000000000000001690631bb5e2dc9060240160206040518083038186803b15801561053a57600080fd5b505afa15801561054e573d6000803e3d6000fd5b505050506040513d601f19601f8201168201806040525081019061057291906115e7565b6040516370a0823160e01b81526001600160a01b037f00000000000000000000000000000000000000000000000000000000000000008116600483015291909116906370a082319060240160206040518083038186803b1580156105d557600080fd5b505afa1580156105e9573d6000803e3d6000fd5b505050506040513d601f19601f8201168201806040525081019061060d919061161d565b905083602001514211801561062157508015155b156106915760008460200151426106389190611868565b905060006004548660400151600554846106529190611849565b61065c9190611849565b6106669190611827565b90508261067864e8d4a5100083611849565b6106829190611827565b61068c908561180f565b935050505b6001830154835464e8d4a51000906106aa908590611849565b6106b49190611827565b6106be9190611868565b6040516370a0823160e01b81523060048201529095507f00000000000000000000000000000000000000000000000000000000000000006001600160a01b0316906370a082319060240160206040518083038186803b15801561072057600080fd5b505afa158015610734573d6000803e3d6000fd5b505050506040513d601f19601f82011682018060405250810190610758919061161d565b8511156107f9576040516370a0823160e01b81523060048201527f00000000000000000000000000000000000000000000000000000000000000006001600160a01b0316906370a082319060240160206040518083038186803b1580156107be57600080fd5b505afa1580156107d2573d6000803e3d6000fd5b505050506040513d601f19601f820116820180604052508101906107f6919061161d565b94505b5050505b5092915050565b61082860405180606001604052806000815260200160008152602001600081525090565b50600081815260016020818152604092839020835160608101855281548152928101549183018290526002015492820192909252901580159061086e5750806020015142115b15610a90576040516306ed78b760e21b8152600481018390526000907f00000000000000000000000000000000000000000000000000000000000000006001600160a01b031690631bb5e2dc9060240160206040518083038186803b1580156108d657600080fd5b505afa1580156108ea573d6000803e3d6000fd5b505050506040513d601f19601f8201168201806040525081019061090e91906115e7565b6040516370a0823160e01b81526001600160a01b037f00000000000000000000000000000000000000000000000000000000000000008116600483015291909116906370a082319060240160206040518083038186803b15801561097157600080fd5b505afa158015610985573d6000803e3d6000fd5b505050506040513d601f19601f820116820180604052508101906109a9919061161d565b90508015610a1e5760008260200151426109c39190611868565b905060006004548460400151600554846109dd9190611849565b6109e79190611849565b6109f19190611827565b905082610a0364e8d4a5100083611849565b610a0d9190611827565b8451610a19919061180f565b845250505b426020838101918252600085815260018083526040918290208651808255945191810182905582870151600290910155815190815291820184905281019190915283907fcb7325664a4a3b7c7223eefc492a97ca4fdf94d46884621e5a8fae5a04b2b9d29060600160405180910390a2505b919050565b8060005b81811015610ad357610ac2848483818110610ab657610ab66118dc565b90506020020135610804565b50610acc816118ab565b9050610a99565b50505050565b6000546001600160a01b03163314610b035760405162461bcd60e51b815260040161037e906117da565b6040516370a0823160e01b81523060048201526001600160a01b0383169063a9059cbb90839083906370a082319060240160206040518083038186803b158015610b4c57600080fd5b505afa158015610b60573d6000803e3d6000fd5b505050506040513d601f19601f82011682018060405250810190610b84919061161d565b6040516001600160e01b031960e085901b1681526001600160a01b0390921660048301526024820152604401602060405180830381600087803b158015610bca57600080fd5b505af1158015610bde573d6000803e3d6000fd5b505050506040513d601f19601f82011682018060405250810190610c0291906115c5565b505050565b6000546001600160a01b03163314610c315760405162461bcd60e51b815260040161037e906117da565b60058190556040518181527fde89cb17ac7f58f94792b3e91e086ed85403819c24ceea882491f960ccb1a2789060200160405180910390a150565b6000546001600160a01b03163314610c965760405162461bcd60e51b815260040161037e906117da565b610ca06000611223565b565b6000546001600160a01b03163314610ccc5760405162461bcd60e51b815260040161037e906117da565b6000828152600160208190526040909120015415610d225760405162461bcd60e51b8152602060048201526013602482015272506f6f6c20616c72656164792065786973747360681b604482015260640161037e565b6004544290610d3290839061180f565b60045560408051606081018252600080825260208083018581528385018781528884526001928390528584209451855590518483015551600293840155825490810183559190527f405787fa12a823e0f2b7631cc41b3ba8828b3321ca811111fa75cd3aa3bb5ace018490555183907f38410508059921573ab9ebdca2a5034be738d236366b8f32de4434ea95ed3c8190610dd09085815260200190565b60405180910390a2505050565b336001600160a01b037f00000000000000000000000000000000000000000000000000000000000000001614610e655760405162461bcd60e51b815260206004820152602760248201527f4f6e6c79204d6173746572436865662063616e2063616c6c20746869732066756044820152663731ba34b7b71760c91b606482015260840161037e565b6000610e7086610804565b60008781526003602090815260408083206001600160a01b038a1684529091528120805492935091156110055760018201548351835464e8d4a5100091610eb691611849565b610ec09190611827565b610eca9190611868565b6040516370a0823160e01b81523060048201529091507f00000000000000000000000000000000000000000000000000000000000000006001600160a01b0316906370a082319060240160206040518083038186803b158015610f2c57600080fd5b505afa158015610f40573d6000803e3d6000fd5b505050506040513d601f19601f82011682018060405250810190610f64919061161d565b811115611005576040516370a0823160e01b81523060048201527f00000000000000000000000000000000000000000000000000000000000000006001600160a01b0316906370a082319060240160206040518083038186803b158015610fca57600080fd5b505afa158015610fde573d6000803e3d6000fd5b505050506040513d601f19601f82011682018060405250810190611002919061161d565b90505b838255825164e8d4a510009061101b9086611849565b6110259190611827565b60018301558015611064576110646001600160a01b037f0000000000000000000000000000000000000000000000000000000000000000168783611273565b856001600160a01b031688886001600160a01b03167f2ece88ca2bc08dd018db50e1d25a20bf1241e5fab1c396caa51f01a54bd2f75b846040516110aa91815260200190565b60405180910390a45050505050505050565b6040805160018082528183019092526060918291600091602080830190803683370190505090507f000000000000000000000000000000000000000000000000000000000000000081600081518110611117576111176118dc565b6001600160a01b03929092166020928302919091019091015260408051600180825281830190925260009181602001602082028036833701905050905061115e878761047e565b81600081518110611171576111716118dc565b602090810291909101015290969095509350505050565b6000546001600160a01b031633146111b25760405162461bcd60e51b815260040161037e906117da565b6001600160a01b0381166112175760405162461bcd60e51b815260206004820152602660248201527f4f776e61626c653a206e6577206f776e657220697320746865207a65726f206160448201526564647265737360d01b606482015260840161037e565b61122081611223565b50565b600080546001600160a01b038381166001600160a01b0319831681178455604051919092169283917f8be0079c531659141344cd1fd0a4f28419497f9722a3daafe3b4186f6b6457e09190a35050565b604080516001600160a01b03848116602483015260448083018590528351808403909101815260649092018352602080830180516001600160e01b031663a9059cbb60e01b17905283518085019094528084527f5361666545524332303a206c6f772d6c6576656c2063616c6c206661696c656490840152610c0292869291600091611303918516908490611380565b805190915015610c02578080602001905181019061132191906115c5565b610c025760405162461bcd60e51b815260206004820152602a60248201527f5361666545524332303a204552433230206f7065726174696f6e20646964206e6044820152691bdd081cdd58d8d9595960b21b606482015260840161037e565b606061138f8484600085611399565b90505b9392505050565b6060824710156113fa5760405162461bcd60e51b815260206004820152602660248201527f416464726573733a20696e73756666696369656e742062616c616e636520666f6044820152651c8818d85b1b60d21b606482015260840161037e565b843b6114485760405162461bcd60e51b815260206004820152601d60248201527f416464726573733a2063616c6c20746f206e6f6e2d636f6e7472616374000000604482015260640161037e565b600080866001600160a01b031685876040516114649190611707565b60006040518083038185875af1925050503d80600081146114a1576040519150601f19603f3d011682016040523d82523d6000602084013e6114a6565b606091505b50915091506114b68282866114c1565b979650505050505050565b606083156114d0575081611392565b8251156114e05782518084602001fd5b8160405162461bcd60e51b815260040161037e91906117a7565b60006020828403121561150c57600080fd5b8135611392816118f2565b6000806040838503121561152a57600080fd5b8235611535816118f2565b91506020830135611545816118f2565b809150509250929050565b6000806020838503121561156357600080fd5b823567ffffffffffffffff8082111561157b57600080fd5b818501915085601f83011261158f57600080fd5b81358181111561159e57600080fd5b8660208260051b85010111156115b357600080fd5b60209290920196919550909350505050565b6000602082840312156115d757600080fd5b8151801515811461139257600080fd5b6000602082840312156115f957600080fd5b8151611392816118f2565b60006020828403121561161657600080fd5b5035919050565b60006020828403121561162f57600080fd5b5051919050565b6000806040838503121561164957600080fd5b823591506020830135611545816118f2565b600080600080600060a0868803121561167357600080fd5b853594506020860135611685816118f2565b93506040860135611695816118f2565b94979396509394606081013594506080013592915050565b6000806000606084860312156116c257600080fd5b8335925060208401356116d4816118f2565b929592945050506040919091013590565b600080604083850312156116f857600080fd5b50508035926020909101359150565b6000825161171981846020870161187f565b9190910192915050565b604080825283519082018190526000906020906060840190828701845b828110156117655781516001600160a01b031684529284019290840190600101611740565b5050508381038285015284518082528583019183019060005b8181101561179a5783518352928401929184019160010161177e565b5090979650505050505050565b60208152600082518060208401526117c681604085016020870161187f565b601f01601f19169190910160400192915050565b6020808252818101527f4f776e61626c653a2063616c6c6572206973206e6f7420746865206f776e6572604082015260600190565b60008219821115611822576118226118c6565b500190565b60008261184457634e487b7160e01b600052601260045260246000fd5b500490565b6000816000190483118215151615611863576118636118c6565b500290565b60008282101561187a5761187a6118c6565b500390565b60005b8381101561189a578181015183820152602001611882565b83811115610ad35750506000910152565b60006000198214156118bf576118bf6118c6565b5060010190565b634e487b7160e01b600052601160045260246000fd5b634e487b7160e01b600052603260045260246000fd5b6001600160a01b038116811461122057600080fdfea2646970667358221220c79b701a284885bba9421965075a9dbfcd2ea79f392e0a1831bd1db61efe4e6f64736f6c63430008070033",
  "devdoc": {
    "kind": "dev",
    "methods": {
      "add(uint256,uint256)": {
        "params": {
          "allocPoint": "AP of the new pool.",
          "pid": "Pid on MasterChef"
        }
      },
      "emergencyWithdraw(address,address)": {
        "params": {
          "token": "The token to withdraw",
          "withdrawTo": "The address to withdraw to"
        }
      },
      "massUpdatePools(uint256[])": {
        "params": {
          "pids": "Pool IDs of all to be updated. Make sure to update all active pools."
        }
      },
      "owner()": {
        "details": "Returns the address of the current owner."
      },
      "pendingToken(uint256,address)": {
        "params": {
          "_pid": "The index of the MasterChef pool. See `poolInfo`.",
          "_user": "Address of user."
        },
        "returns": {
          "pending": "rewards for a given user."
        }
      },
      "renounceOwnership()": {
        "details": "Leaves the contract without owner. It will not be possible to call `onlyOwner` functions anymore. Can only be called by the current owner. NOTE: Renouncing ownership will leave the contract without an owner, thereby removing any functionality that is only available to the owner."
      },
      "set(uint256,uint256)": {
        "params": {
          "allocPoint": "New AP of the pool.",
          "pid": "The index of the MasterChef pool. See `poolInfo`."
        }
      },
      "setRewardPerSecond(uint256)": {
        "params": {
          "_rewardPerSecond": "The amount of token rewards to be distributed per second."
        }
      },
      "transferOwnership(address)": {
        "details": "Transfers ownership of the contract to a new account (`newOwner`). Can only be called by the current owner."
      },
      "updatePool(uint256)": {
        "params": {
          "pid": "The index of the pool. See `poolInfo`."
        },
        "returns": {
          "pool": "Returns the pool that was updated."
        }
      }
    },
    "stateVariables": {
      "totalAllocPoint": {
        "details": "Total allocation points. Must be the sum of all allocation points in all pools."
      }
    },
    "version": 1
  },
  "userdoc": {
    "kind": "user",
    "methods": {
      "add(uint256,uint256)": {
        "notice": "Add a new LP to the pool. Can only be called by the owner."
      },
      "emergencyWithdraw(address,address)": {
        "notice": "Emergency withdraw total balance of this token"
      },
      "massUpdatePools(uint256[])": {
        "notice": "Update reward variables for all pools. Be careful of gas spending!"
      },
      "pendingToken(uint256,address)": {
        "notice": "View function to see pending Token"
      },
      "poolInfo(uint256)": {
        "notice": "Info of each pool."
      },
      "poolLength()": {
        "notice": "Returns the number of rewarded pools."
      },
      "set(uint256,uint256)": {
        "notice": "Update the given pool's reward token allocation point and `IRewarder` contract. Can only be called by the owner."
      },
      "setRewardPerSecond(uint256)": {
        "notice": "Sets the rewards per second to be distributed. Can only be called by the owner."
      },
      "updatePool(uint256)": {
        "notice": "Update reward variables of the given pool."
      },
      "userInfo(uint256,address)": {
        "notice": "Info of each user that stakes LP tokens."
      }
    },
    "version": 1
  },
  "storageLayout": {
    "storage": [
      {
        "astId": 7,
        "contract": "contracts/rewarder/TimeBasedRewarder.sol:TimeBasedRewarder",
        "label": "_owner",
        "offset": 0,
        "slot": "0",
        "type": "t_address"
      },
      {
        "astId": 4509,
        "contract": "contracts/rewarder/TimeBasedRewarder.sol:TimeBasedRewarder",
        "label": "poolInfo",
        "offset": 0,
        "slot": "1",
        "type": "t_mapping(t_uint256,t_struct(PoolInfo)4503_storage)"
      },
      {
        "astId": 4512,
        "contract": "contracts/rewarder/TimeBasedRewarder.sol:TimeBasedRewarder",
        "label": "masterchefPoolIds",
        "offset": 0,
        "slot": "2",
        "type": "t_array(t_uint256)dyn_storage"
      },
      {
        "astId": 4520,
        "contract": "contracts/rewarder/TimeBasedRewarder.sol:TimeBasedRewarder",
        "label": "userInfo",
        "offset": 0,
        "slot": "3",
        "type": "t_mapping(t_uint256,t_mapping(t_address,t_struct(UserInfo)4496_storage))"
      },
      {
        "astId": 4523,
        "contract": "contracts/rewarder/TimeBasedRewarder.sol:TimeBasedRewarder",
        "label": "totalAllocPoint",
        "offset": 0,
        "slot": "4",
        "type": "t_uint256"
      },
      {
        "astId": 4525,
        "contract": "contracts/rewarder/TimeBasedRewarder.sol:TimeBasedRewarder",
        "label": "rewardPerSecond",
        "offset": 0,
        "slot": "5",
        "type": "t_uint256"
      }
    ],
    "types": {
      "t_address": {
        "encoding": "inplace",
        "label": "address",
        "numberOfBytes": "20"
      },
      "t_array(t_uint256)dyn_storage": {
        "base": "t_uint256",
        "encoding": "dynamic_array",
        "label": "uint256[]",
        "numberOfBytes": "32"
      },
      "t_mapping(t_address,t_struct(UserInfo)4496_storage)": {
        "encoding": "mapping",
        "key": "t_address",
        "label": "mapping(address => struct TimeBasedRewarder.UserInfo)",
        "numberOfBytes": "32",
        "value": "t_struct(UserInfo)4496_storage"
      },
      "t_mapping(t_uint256,t_mapping(t_address,t_struct(UserInfo)4496_storage))": {
        "encoding": "mapping",
        "key": "t_uint256",
        "label": "mapping(uint256 => mapping(address => struct TimeBasedRewarder.UserInfo))",
        "numberOfBytes": "32",
        "value": "t_mapping(t_address,t_struct(UserInfo)4496_storage)"
      },
      "t_mapping(t_uint256,t_struct(PoolInfo)4503_storage)": {
        "encoding": "mapping",
        "key": "t_uint256",
        "label": "mapping(uint256 => struct TimeBasedRewarder.PoolInfo)",
        "numberOfBytes": "32",
        "value": "t_struct(PoolInfo)4503_storage"
      },
      "t_struct(PoolInfo)4503_storage": {
        "encoding": "inplace",
        "label": "struct TimeBasedRewarder.PoolInfo",
        "members": [
          {
            "astId": 4498,
            "contract": "contracts/rewarder/TimeBasedRewarder.sol:TimeBasedRewarder",
            "label": "accRewardTokenPerShare",
            "offset": 0,
            "slot": "0",
            "type": "t_uint256"
          },
          {
            "astId": 4500,
            "contract": "contracts/rewarder/TimeBasedRewarder.sol:TimeBasedRewarder",
            "label": "lastRewardTime",
            "offset": 0,
            "slot": "1",
            "type": "t_uint256"
          },
          {
            "astId": 4502,
            "contract": "contracts/rewarder/TimeBasedRewarder.sol:TimeBasedRewarder",
            "label": "allocPoint",
            "offset": 0,
            "slot": "2",
            "type": "t_uint256"
          }
        ],
        "numberOfBytes": "96"
      },
      "t_struct(UserInfo)4496_storage": {
        "encoding": "inplace",
        "label": "struct TimeBasedRewarder.UserInfo",
        "members": [
          {
            "astId": 4493,
            "contract": "contracts/rewarder/TimeBasedRewarder.sol:TimeBasedRewarder",
            "label": "amount",
            "offset": 0,
            "slot": "0",
            "type": "t_uint256"
          },
          {
            "astId": 4495,
            "contract": "contracts/rewarder/TimeBasedRewarder.sol:TimeBasedRewarder",
            "label": "rewardDebt",
            "offset": 0,
            "slot": "1",
            "type": "t_uint256"
          }
        ],
        "numberOfBytes": "64"
      },
      "t_uint256": {
        "encoding": "inplace",
        "label": "uint256",
        "numberOfBytes": "32"
      }
    }
  }
}