{
  "address": "0x42BaFb14a27295A6e9Ff2c806B8F367E273BD2e4",
  "abi": [
    {
      "inputs": [
        {
          "internalType": "contract BeethovenxToken",
          "name": "_beethovenx",
          "type": "address"
        },
        {
          "internalType": "address",
          "name": "_devAddress",
          "type": "address"
        },
        {
          "internalType": "address",
          "name": "_treasuryAddress",
          "type": "address"
        },
        {
          "internalType": "uint256",
          "name": "_beetxPerBlock",
          "type": "uint256"
        },
        {
          "internalType": "uint256",
          "name": "_startBlock",
          "type": "uint256"
        },
        {
          "internalType": "uint256",
          "name": "_devPercent",
          "type": "uint256"
        },
        {
          "internalType": "uint256",
          "name": "_treasuryPercent",
          "type": "uint256"
        }
      ],
      "stateMutability": "nonpayable",
      "type": "constructor"
    },
    {
      "anonymous": false,
      "inputs": [
        {
          "indexed": true,
          "internalType": "address",
          "name": "user",
          "type": "address"
        },
        {
          "indexed": true,
          "internalType": "uint256",
          "name": "pid",
          "type": "uint256"
        },
        {
          "indexed": false,
          "internalType": "uint256",
          "name": "amount",
          "type": "uint256"
        },
        {
          "indexed": true,
          "internalType": "address",
          "name": "to",
          "type": "address"
        }
      ],
      "name": "Deposit",
      "type": "event"
    },
    {
      "anonymous": false,
      "inputs": [
        {
          "indexed": true,
          "internalType": "address",
          "name": "user",
          "type": "address"
        },
        {
          "indexed": true,
          "internalType": "uint256",
          "name": "pid",
          "type": "uint256"
        },
        {
          "indexed": false,
          "internalType": "uint256",
          "name": "amount",
          "type": "uint256"
        },
        {
          "indexed": true,
          "internalType": "address",
          "name": "to",
          "type": "address"
        }
      ],
      "name": "EmergencyWithdraw",
      "type": "event"
    },
    {
      "anonymous": false,
      "inputs": [
        {
          "indexed": true,
          "internalType": "address",
          "name": "user",
          "type": "address"
        },
        {
          "indexed": true,
          "internalType": "uint256",
          "name": "pid",
          "type": "uint256"
        },
        {
          "indexed": false,
          "internalType": "uint256",
          "name": "amount",
          "type": "uint256"
        }
      ],
      "name": "Harvest",
      "type": "event"
    },
    {
      "anonymous": false,
      "inputs": [
        {
          "indexed": true,
          "internalType": "uint256",
          "name": "pid",
          "type": "uint256"
        },
        {
          "indexed": false,
          "internalType": "uint256",
          "name": "allocPoint",
          "type": "uint256"
        },
        {
          "indexed": true,
          "internalType": "contract IERC20",
          "name": "lpToken",
          "type": "address"
        },
        {
          "indexed": true,
          "internalType": "contract IRewarder",
          "name": "rewarder",
          "type": "address"
        }
      ],
      "name": "LogPoolAddition",
      "type": "event"
    },
    {
      "anonymous": false,
      "inputs": [
        {
          "indexed": true,
          "internalType": "uint256",
          "name": "pid",
          "type": "uint256"
        },
        {
          "indexed": false,
          "internalType": "uint256",
          "name": "allocPoint",
          "type": "uint256"
        },
        {
          "indexed": true,
          "internalType": "contract IRewarder",
          "name": "rewarder",
          "type": "address"
        },
        {
          "indexed": false,
          "internalType": "bool",
          "name": "overwrite",
          "type": "bool"
        }
      ],
      "name": "LogSetPool",
      "type": "event"
    },
    {
      "anonymous": false,
      "inputs": [
        {
          "indexed": true,
          "internalType": "uint256",
          "name": "pid",
          "type": "uint256"
        },
        {
          "indexed": false,
          "internalType": "uint256",
          "name": "lastRewardBlock",
          "type": "uint256"
        },
        {
          "indexed": false,
          "internalType": "uint256",
          "name": "lpSupply",
          "type": "uint256"
        },
        {
          "indexed": false,
          "internalType": "uint256",
          "name": "accBeetxPerShare",
          "type": "uint256"
        }
      ],
      "name": "LogUpdatePool",
      "type": "event"
    },
    {
      "anonymous": false,
      "inputs": [
        {
          "indexed": true,
          "internalType": "address",
          "name": "previousOwner",
          "type": "address"
        },
        {
          "indexed": true,
          "internalType": "address",
          "name": "newOwner",
          "type": "address"
        }
      ],
      "name": "OwnershipTransferred",
      "type": "event"
    },
    {
      "anonymous": false,
      "inputs": [
        {
          "indexed": true,
          "internalType": "address",
          "name": "oldAddress",
          "type": "address"
        },
        {
          "indexed": true,
          "internalType": "address",
          "name": "newAddress",
          "type": "address"
        }
      ],
      "name": "SetDevAddress",
      "type": "event"
    },
    {
      "anonymous": false,
      "inputs": [
        {
          "indexed": true,
          "internalType": "address",
          "name": "user",
          "type": "address"
        },
        {
          "indexed": false,
          "internalType": "uint256",
          "name": "_joePerSec",
          "type": "uint256"
        }
      ],
      "name": "UpdateEmissionRate",
      "type": "event"
    },
    {
      "anonymous": false,
      "inputs": [
        {
          "indexed": true,
          "internalType": "address",
          "name": "user",
          "type": "address"
        },
        {
          "indexed": true,
          "internalType": "uint256",
          "name": "pid",
          "type": "uint256"
        },
        {
          "indexed": false,
          "internalType": "uint256",
          "name": "amount",
          "type": "uint256"
        },
        {
          "indexed": true,
          "internalType": "address",
          "name": "to",
          "type": "address"
        }
      ],
      "name": "Withdraw",
      "type": "event"
    },
    {
      "inputs": [
        {
          "internalType": "uint256",
          "name": "_allocPoint",
          "type": "uint256"
        },
        {
          "internalType": "contract IERC20",
          "name": "_lpToken",
          "type": "address"
        },
        {
          "internalType": "contract IRewarder",
          "name": "_rewarder",
          "type": "address"
        }
      ],
      "name": "add",
      "outputs": [],
      "stateMutability": "nonpayable",
      "type": "function"
    },
    {
      "inputs": [],
      "name": "beetx",
      "outputs": [
        {
          "internalType": "contract BeethovenxToken",
          "name": "",
          "type": "address"
        }
      ],
      "stateMutability": "view",
      "type": "function"
    },
    {
      "inputs": [],
      "name": "beetxPerBlock",
      "outputs": [
        {
          "internalType": "uint256",
          "name": "",
          "type": "uint256"
        }
      ],
      "stateMutability": "view",
      "type": "function"
    },
    {
      "inputs": [
        {
          "internalType": "uint256",
          "name": "_pid",
          "type": "uint256"
        },
        {
          "internalType": "uint256",
          "name": "_amount",
          "type": "uint256"
        },
        {
          "internalType": "address payable",
          "name": "_to",
          "type": "address"
        }
      ],
      "name": "deposit",
      "outputs": [],
      "stateMutability": "nonpayable",
      "type": "function"
    },
    {
      "inputs": [
        {
          "internalType": "address",
          "name": "_devaddr",
          "type": "address"
        }
      ],
      "name": "dev",
      "outputs": [],
      "stateMutability": "nonpayable",
      "type": "function"
    },
    {
      "inputs": [],
      "name": "devAddress",
      "outputs": [
        {
          "internalType": "address",
          "name": "",
          "type": "address"
        }
      ],
      "stateMutability": "view",
      "type": "function"
    },
    {
      "inputs": [],
      "name": "devPercent",
      "outputs": [
        {
          "internalType": "uint256",
          "name": "",
          "type": "uint256"
        }
      ],
      "stateMutability": "view",
      "type": "function"
    },
    {
      "inputs": [
        {
          "internalType": "uint256",
          "name": "_pid",
          "type": "uint256"
        },
        {
          "internalType": "address",
          "name": "_to",
          "type": "address"
        }
      ],
      "name": "emergencyWithdraw",
      "outputs": [],
      "stateMutability": "nonpayable",
      "type": "function"
    },
    {
      "inputs": [
        {
          "internalType": "uint256",
          "name": "_pid",
          "type": "uint256"
        },
        {
          "internalType": "address",
          "name": "_to",
          "type": "address"
        }
      ],
      "name": "harvest",
      "outputs": [],
      "stateMutability": "nonpayable",
      "type": "function"
    },
    {
      "inputs": [
        {
          "internalType": "uint256",
          "name": "",
          "type": "uint256"
        }
      ],
      "name": "lpTokens",
      "outputs": [
        {
          "internalType": "contract IERC20",
          "name": "",
          "type": "address"
        }
      ],
      "stateMutability": "view",
      "type": "function"
    },
    {
      "inputs": [],
      "name": "massUpdatePools",
      "outputs": [],
      "stateMutability": "nonpayable",
      "type": "function"
    },
    {
      "inputs": [],
      "name": "owner",
      "outputs": [
        {
          "internalType": "address",
          "name": "",
          "type": "address"
        }
      ],
      "stateMutability": "view",
      "type": "function"
    },
    {
      "inputs": [
        {
          "internalType": "uint256",
          "name": "_pid",
          "type": "uint256"
        },
        {
          "internalType": "address",
          "name": "_user",
          "type": "address"
        }
      ],
      "name": "pendingBeetx",
      "outputs": [
        {
          "internalType": "uint256",
          "name": "pending",
          "type": "uint256"
        }
      ],
      "stateMutability": "view",
      "type": "function"
    },
    {
      "inputs": [
        {
          "internalType": "uint256",
          "name": "",
          "type": "uint256"
        }
      ],
      "name": "poolInfo",
      "outputs": [
        {
          "internalType": "uint256",
          "name": "allocPoint",
          "type": "uint256"
        },
        {
          "internalType": "uint256",
          "name": "lastRewardBlock",
          "type": "uint256"
        },
        {
          "internalType": "uint256",
          "name": "accBeetxPerShare",
          "type": "uint256"
        }
      ],
      "stateMutability": "view",
      "type": "function"
    },
    {
      "inputs": [],
      "name": "poolLength",
      "outputs": [
        {
          "internalType": "uint256",
          "name": "",
          "type": "uint256"
        }
      ],
      "stateMutability": "view",
      "type": "function"
    },
    {
      "inputs": [],
      "name": "renounceOwnership",
      "outputs": [],
      "stateMutability": "nonpayable",
      "type": "function"
    },
    {
      "inputs": [
        {
          "internalType": "uint256",
          "name": "",
          "type": "uint256"
        }
      ],
      "name": "rewarder",
      "outputs": [
        {
          "internalType": "contract IRewarder",
          "name": "",
          "type": "address"
        }
      ],
      "stateMutability": "view",
      "type": "function"
    },
    {
      "inputs": [
        {
          "internalType": "uint256",
          "name": "_pid",
          "type": "uint256"
        },
        {
          "internalType": "uint256",
          "name": "_allocPoint",
          "type": "uint256"
        },
        {
          "internalType": "contract IRewarder",
          "name": "_rewarder",
          "type": "address"
        },
        {
          "internalType": "bool",
          "name": "overwrite",
          "type": "bool"
        }
      ],
      "name": "set",
      "outputs": [],
      "stateMutability": "nonpayable",
      "type": "function"
    },
    {
      "inputs": [
        {
          "internalType": "uint256",
          "name": "_newDevPercent",
          "type": "uint256"
        }
      ],
      "name": "setDevPercent",
      "outputs": [],
      "stateMutability": "nonpayable",
      "type": "function"
    },
    {
      "inputs": [
        {
          "internalType": "uint256",
          "name": "_newTreasuryPercent",
          "type": "uint256"
        }
      ],
      "name": "setTreasuryPercent",
      "outputs": [],
      "stateMutability": "nonpayable",
      "type": "function"
    },
    {
      "inputs": [],
      "name": "startBlock",
      "outputs": [
        {
          "internalType": "uint256",
          "name": "",
          "type": "uint256"
        }
      ],
      "stateMutability": "view",
      "type": "function"
    },
    {
      "inputs": [],
      "name": "totalAllocPoint",
      "outputs": [
        {
          "internalType": "uint256",
          "name": "",
          "type": "uint256"
        }
      ],
      "stateMutability": "view",
      "type": "function"
    },
    {
      "inputs": [
        {
          "internalType": "address",
          "name": "newOwner",
          "type": "address"
        }
      ],
      "name": "transferOwnership",
      "outputs": [],
      "stateMutability": "nonpayable",
      "type": "function"
    },
    {
      "inputs": [
        {
          "internalType": "address",
          "name": "_treasuryAddress",
          "type": "address"
        }
      ],
      "name": "treasury",
      "outputs": [],
      "stateMutability": "nonpayable",
      "type": "function"
    },
    {
      "inputs": [],
      "name": "treasuryAddress",
      "outputs": [
        {
          "internalType": "address",
          "name": "",
          "type": "address"
        }
      ],
      "stateMutability": "view",
      "type": "function"
    },
    {
      "inputs": [],
      "name": "treasuryPercent",
      "outputs": [
        {
          "internalType": "uint256",
          "name": "",
          "type": "uint256"
        }
      ],
      "stateMutability": "view",
      "type": "function"
    },
    {
      "inputs": [
        {
          "internalType": "uint256",
          "name": "_beetxPerBlock",
          "type": "uint256"
        }
      ],
      "name": "updateEmissionRate",
      "outputs": [],
      "stateMutability": "nonpayable",
      "type": "function"
    },
    {
      "inputs": [
        {
          "internalType": "uint256",
          "name": "_pid",
          "type": "uint256"
        }
      ],
      "name": "updatePool",
      "outputs": [
        {
          "components": [
            {
              "internalType": "uint256",
              "name": "allocPoint",
              "type": "uint256"
            },
            {
              "internalType": "uint256",
              "name": "lastRewardBlock",
              "type": "uint256"
            },
            {
              "internalType": "uint256",
              "name": "accBeetxPerShare",
              "type": "uint256"
            }
          ],
          "internalType": "struct BeethovenxMasterChef.PoolInfo",
          "name": "pool",
          "type": "tuple"
        }
      ],
      "stateMutability": "nonpayable",
      "type": "function"
    },
    {
      "inputs": [
        {
          "internalType": "uint256",
          "name": "",
          "type": "uint256"
        },
        {
          "internalType": "address",
          "name": "",
          "type": "address"
        }
      ],
      "name": "userInfo",
      "outputs": [
        {
          "internalType": "uint256",
          "name": "amount",
          "type": "uint256"
        },
        {
          "internalType": "uint256",
          "name": "rewardDebt",
          "type": "uint256"
        }
      ],
      "stateMutability": "view",
      "type": "function"
    },
    {
      "inputs": [
        {
          "internalType": "uint256",
          "name": "_pid",
          "type": "uint256"
        },
        {
          "internalType": "uint256",
          "name": "_amount",
          "type": "uint256"
        },
        {
          "internalType": "address",
          "name": "_to",
          "type": "address"
        }
      ],
      "name": "withdrawAndHarvest",
      "outputs": [],
      "stateMutability": "nonpayable",
      "type": "function"
    }
  ],
  "transactionHash": "0xe91b997d4e42aa947040f521d43c760a58d2206b1b57d7b014e1305a2ba1f9af",
  "args": [
    "0x292b51c504E014022d9C3e2482C4B4Cf7fcDa950",
    "0x121F66ea742AA4ccF07bd252031C7310C18dA737",
    "0xdddA120e3Ff4D7A7673a2E3D175E15FCB7258667",
    "3000000000000000000",
    0,
    200,
    200
  ],
  "solcInputHash": "13c39f46ffccb51a103f93a06f44a653",
  "bytecode": "0x60806040526000600d553480156200001657600080fd5b506040516200252c3803806200252c833981016040819052620000399162000224565b6200004433620001d4565b6103e8821115620000ab5760405162461bcd60e51b815260206004820152602660248201527f636f6e7374727563746f723a20696e76616c6964206465762070657263656e746044820152652076616c756560d01b60648201526084015b60405180910390fd5b6103e8811115620001135760405162461bcd60e51b815260206004820152602b60248201527f636f6e7374727563746f723a20696e76616c696420747265617375727920706560448201526a7263656e742076616c756560a81b6064820152608401620000a2565b6103e86200012282846200029f565b11156200017e5760405162461bcd60e51b815260206004820152602360248201527f636f6e7374727563746f723a20746f74616c2070657263656e74206f766572206044820152620dac2f60eb1b6064820152608401620000a2565b600180546001600160a01b03199081166001600160a01b03998a161790915560028054821697891697909717909655600380549096169490961693909317909355600455600e91909155600555600655620002df565b600080546001600160a01b038381166001600160a01b0319831681178455604051919092169283917f8be0079c531659141344cd1fd0a4f28419497f9722a3daafe3b4186f6b6457e09190a35050565b600080600080600080600060e0888a0312156200024057600080fd5b87516200024d81620002c6565b60208901519097506200026081620002c6565b60408901519096506200027381620002c6565b80955050606088015193506080880151925060a0880151915060c0880151905092959891949750929550565b60008219821115620002c157634e487b7160e01b600052601160045260246000fd5b500190565b6001600160a01b0381168114620002dc57600080fd5b50565b61223d80620002ef6000396000f3fe608060405234801561001057600080fd5b50600436106101da5760003560e01c806388bba42f11610104578063b18fa371116100a2578063d1abb90711610071578063d1abb90714610420578063ef5e739e14610433578063f2fde38b14610446578063fc3c28af1461045957600080fd5b8063b18fa371146103de578063c346253d146103e7578063c5f956af146103fa578063d0358e731461040d57600080fd5b80638da5cb5b116100de5780638da5cb5b146103605780638dbdbe6d1461037157806393f1a40b14610384578063ab7de098146103cb57600080fd5b806388bba42f1461032757806389a2bc251461033a5780638d88a90e1461034d57600080fd5b80632d809cb61161017c57806351eb05a61161014b57806351eb05a6146102cf578063630b5ba1146103045780636eaddad21461030c578063715018a61461031f57600080fd5b80632d809cb61461028d5780632f940c70146102a05780633ad10ef6146102b357806348cd4cb1146102c657600080fd5b80631526fe27116101b85780631526fe271461021857806317caf6f11461024657806318fccc761461024f5780631bb5e2dc1461026257600080fd5b806304ef9d58146101df578063081e3eda146101fb5780630ba84cd214610203575b600080fd5b6101e860065481565b6040519081526020015b60405180910390f35b6007546101e8565b610216610211366004611f32565b610462565b005b61022b610226366004611f32565b6104da565b604080519384526020840192909252908201526060016101f2565b6101e8600d5481565b61021661025d366004611f64565b61050d565b610275610270366004611f32565b61065e565b6040516001600160a01b0390911681526020016101f2565b61021661029b366004611ef8565b610688565b6102166102ae366004611f64565b610704565b600254610275906001600160a01b031681565b6101e8600e5481565b6102e26102dd366004611f32565b61084f565b60408051825181526020808401519082015291810151908201526060016101f2565b610216610c38565b61021661031a366004611f32565b610c64565b610216610d5e565b610216610335366004612004565b610d94565b610216610348366004611f32565b610f70565b61021661035b366004611ef8565b611075565b6000546001600160a01b0316610275565b61021661037f366004611fd6565b6110dd565b6103b6610392366004611f64565b600c6020908152600092835260408084209091529082529020805460019091015482565b604080519283526020830191909152016101f2565b6102166103d9366004611f94565b61127b565b6101e860045481565b6102756103f5366004611f32565b61157e565b600354610275906001600160a01b031681565b600154610275906001600160a01b031681565b61021661042e366004611fd6565b61158e565b6101e8610441366004611f64565b611777565b610216610454366004611ef8565b61195a565b6101e860055481565b6000546001600160a01b031633146104955760405162461bcd60e51b815260040161048c9061209d565b60405180910390fd5b61049d610c38565b600481905560405181815233907fe2492e003bbe8afa53088b406f0c1cb5d9e280370fc72a74cf116ffd343c40539060200160405180910390a250565b600781815481106104ea57600080fd5b600091825260209091206003909102018054600182015460029092015490925083565b60006105188361084f565b6000848152600c60209081526040808320338452909152808220908301518154939450909264e8d4a510009161054d9161213b565b6105579190612119565b9050600082600101548261056b919061215a565b60018401839055905080156105845761058485826119f5565b6000600b8781548110610599576105996121ce565b6000918252602090912001546001600160a01b03169050801561061e578354604051630675171f60e31b81526001600160a01b038316916333a8b8f8916105eb918b9133918c918991906004016120d2565b600060405180830381600087803b15801561060557600080fd5b505af1158015610619573d6000803e3d6000fd5b505050505b604051828152879033907f71bab65ced2e5750775a0613be067df48ef06cf92a496ebf7663ae06609249549060200160405180910390a350505050505050565b6008818154811061066e57600080fd5b6000918252602090912001546001600160a01b0316905081565b6003546001600160a01b031633146106e25760405162461bcd60e51b815260206004820152601860248201527f7365745472656173757279416464726573733a207775743f0000000000000000604482015260640161048c565b600380546001600160a01b0319166001600160a01b0392909216919091179055565b6000828152600c602090815260408083203384529091528120805482825560018201839055600b80549293919286908110610741576107416121ce565b6000918252602090912001546001600160a01b0316905080156107c657604051630675171f60e31b81526001600160a01b038216906333a8b8f8906107939088903390899060009081906004016120d2565b600060405180830381600087803b1580156107ad57600080fd5b505af11580156107c1573d6000803e3d6000fd5b505050505b6107fa8483600888815481106107de576107de6121ce565b6000918252602090912001546001600160a01b03169190611b46565b836001600160a01b031685336001600160a01b03167f2cac5e20e1541d836381527a43f651851e302817b71dc8e810284e69210c1c6b8560405161084091815260200190565b60405180910390a45050505050565b61087360405180606001604052806000815260200160008152602001600081525090565b60078281548110610886576108866121ce565b600091825260209182902060408051606081018252600390930290910180548352600181015493830184905260020154908201529150431115610c33576000600883815481106108d8576108d86121ce565b6000918252602090912001546040516370a0823160e01b81523060048201526001600160a01b03909116906370a082319060240160206040518083038186803b15801561092457600080fd5b505afa158015610938573d6000803e3d6000fd5b505050506040513d601f19601f8201168201806040525081019061095c9190611f4b565b90508015610ba3576000826020015143610976919061215a565b600d54845160045492935060009261098e908561213b565b610998919061213b565b6109a29190612119565b905060006006546005546103e86109b9919061215a565b6109c3919061215a565b905060006103e86109d4838561213b565b6109de9190612119565b6001546002546005549293506001600160a01b03918216926340c10f1992909116906103e890610a0e908861213b565b610a189190612119565b6040516001600160e01b031960e085901b1681526001600160a01b0390921660048301526024820152604401600060405180830381600087803b158015610a5e57600080fd5b505af1158015610a72573d6000803e3d6000fd5b50506001546003546006546001600160a01b0392831694506340c10f1993509116906103e890610aa2908861213b565b610aac9190612119565b6040516001600160e01b031960e085901b1681526001600160a01b0390921660048301526024820152604401600060405180830381600087803b158015610af257600080fd5b505af1158015610b06573d6000803e3d6000fd5b50506001546040516340c10f1960e01b8152306004820152602481018590526001600160a01b0390911692506340c10f199150604401600060405180830381600087803b158015610b5657600080fd5b505af1158015610b6a573d6000803e3d6000fd5b505050508464e8d4a5100082610b80919061213b565b610b8a9190612119565b8660400151610b999190612101565b6040870152505050505b4360208301526007805483919085908110610bc057610bc06121ce565b60009182526020918290208351600390920201908155828201516001820155604092830151600290910155838101518483015183519182529181018490529182015283907fcb7325664a4a3b7c7223eefc492a97ca4fdf94d46884621e5a8fae5a04b2b9d29060600160405180910390a2505b919050565b60075460005b81811015610c6057610c4f8161084f565b50610c598161219d565b9050610c3e565b5050565b6000546001600160a01b03163314610c8e5760405162461bcd60e51b815260040161048c9061209d565b6103e8811115610cec5760405162461bcd60e51b8152602060048201526024808201527f73657444657650657263656e743a20696e76616c69642070657263656e742076604482015263616c756560e01b606482015260840161048c565b6103e881600654610cfd9190612101565b1115610d595760405162461bcd60e51b815260206004820152602560248201527f73657444657650657263656e743a20746f74616c2070657263656e74206f76656044820152640e440dac2f60db1b606482015260840161048c565b600555565b6000546001600160a01b03163314610d885760405162461bcd60e51b815260040161048c9061209d565b610d926000611ba9565b565b6000546001600160a01b03163314610dbe5760405162461bcd60e51b815260040161048c9061209d565b813b151580610dd457506001600160a01b038216155b610e2f5760405162461bcd60e51b815260206004820152602660248201527f7365743a207265776172646572206d75737420626520636f6e7472616374206f60448201526572207a65726f60d01b606482015260840161048c565b610e37610c38565b8260078581548110610e4b57610e4b6121ce565b906000526020600020906003020160000154600d54610e6a919061215a565b610e749190612101565b600d819055508260078581548110610e8e57610e8e6121ce565b60009182526020909120600390910201558015610ee85781600b8581548110610eb957610eb96121ce565b9060005260206000200160006101000a8154816001600160a01b0302191690836001600160a01b031602179055505b80610f1a57600b8481548110610f0057610f006121ce565b6000918252602090912001546001600160a01b0316610f1c565b815b6001600160a01b0316847f95895a6ab1df54420d241b55243258a33e61b2194db66c1179ec521aae8e18658584604051610f629291909182521515602082015260400190565b60405180910390a350505050565b6000546001600160a01b03163314610f9a5760405162461bcd60e51b815260040161048c9061209d565b6103e8811115610ffe5760405162461bcd60e51b815260206004820152602960248201527f736574547265617375727950657263656e743a20696e76616c69642070657263604482015268656e742076616c756560b81b606482015260840161048c565b6103e88160055461100f9190612101565b11156110705760405162461bcd60e51b815260206004820152602a60248201527f736574547265617375727950657263656e743a20746f74616c2070657263656e6044820152690e840deeccae440dac2f60b31b606482015260840161048c565b600655565b6002546001600160a01b031633146110bb5760405162461bcd60e51b81526020600482015260096024820152686465763a207775743f60b81b604482015260640161048c565b600280546001600160a01b0319166001600160a01b0392909216919091179055565b60006110e88461084f565b6000858152600c602090815260408083206001600160a01b0387168452909152902080549192509061111b908590612101565b8155604082015164e8d4a5100090611133908661213b565b61113d9190612119565b816001015461114c9190612101565b81600101819055506000600b8681548110611169576111696121ce565b6000918252602090912001546001600160a01b0316905080156111ef578154604051630675171f60e31b81526001600160a01b038316916333a8b8f8916111bc918a9189918291600091906004016120d2565b600060405180830381600087803b1580156111d657600080fd5b505af11580156111ea573d6000803e3d6000fd5b505050505b61122533308760088a81548110611208576112086121ce565b6000918252602090912001546001600160a01b0316929190611bf9565b836001600160a01b031686336001600160a01b03167f02d7e648dd130fc184d383e55bb126ac4c9c60e8f94bf05acdf557ba2d540b478860405161126b91815260200190565b60405180910390a4505050505050565b6000546001600160a01b031633146112a55760405162461bcd60e51b815260040161048c9061209d565b813b6113025760405162461bcd60e51b815260206004820152602660248201527f6164643a204c5020746f6b656e206d75737420626520612076616c696420636f6044820152651b9d1c9858dd60d21b606482015260840161048c565b803b15158061131857506001600160a01b038116155b6113735760405162461bcd60e51b815260206004820152602660248201527f6164643a207265776172646572206d75737420626520636f6e7472616374206f60448201526572207a65726f60d01b606482015260840161048c565b61137e600983611c31565b156113c35760405162461bcd60e51b81526020600482015260156024820152741859190e88131408185b1c9958591e481859191959605a1b604482015260640161048c565b6113cb610c38565b6000600e5443116113de57600e546113e0565b435b905083600d546113f09190612101565b600d55600880546001810182556000919091527ff3f7a9fe364faab93b216da50a3214154f22a0a2b415b23a84c8169e8b636ee30180546001600160a01b0319166001600160a01b038516179055611449600984611c58565b50600b805460018082019092557f0175b7a638427703f0dbe7bb9bbf987a2551717b34e79f33b5b1008d1fa01db90180546001600160a01b0319166001600160a01b0385811691821790925560408051606081018252888152602081018681526000928201838152600780548089018255945291517fa66cc928b5edb82af9bd49922954155ab7b0942694bea4ce44661d9a8736c688600390940293840155517fa66cc928b5edb82af9bd49922954155ab7b0942694bea4ce44661d9a8736c689830155517fa66cc928b5edb82af9bd49922954155ab7b0942694bea4ce44661d9a8736c68a909101556008549092918616916115459161215a565b6040518781527f81ee0f8c5c46e2cb41984886f77a84181724abb86c32a5f6de539b07509d45e59060200160405180910390a450505050565b600b818154811061066e57600080fd5b60006115998461084f565b6000858152600c60209081526040808320338452909152808220908301518154939450909264e8d4a51000916115ce9161213b565b6115d89190612119565b905060008260010154826115ec919061215a565b905064e8d4a51000846040015187611604919061213b565b61160e9190612119565b611618908361215a565b6001840155825461162a90879061215a565b835561163685826119f5565b6000600b888154811061164b5761164b6121ce565b6000918252602090912001546001600160a01b0316905080156116d0578354604051630675171f60e31b81526001600160a01b038316916333a8b8f89161169d918c9133918c918991906004016120d2565b600060405180830381600087803b1580156116b757600080fd5b505af11580156116cb573d6000803e3d6000fd5b505050505b6116e8868860088b815481106107de576107de6121ce565b856001600160a01b031688336001600160a01b03167f8166bf25f8a2b7ed3c85049207da4358d16edbed977d23fa2ee6f0dde3ec21328a60405161172e91815260200190565b60405180910390a4604051828152889033907f71bab65ced2e5750775a0613be067df48ef06cf92a496ebf7663ae06609249549060200160405180910390a35050505050505050565b6000806007848154811061178d5761178d6121ce565b60009182526020808320878452600c825260408085206001600160a01b038916865290925290832060039290920201600281015460088054929550929390929091889081106117de576117de6121ce565b6000918252602090912001546040516370a0823160e01b81523060048201526001600160a01b03909116906370a082319060240160206040518083038186803b15801561182a57600080fd5b505afa15801561183e573d6000803e3d6000fd5b505050506040513d601f19601f820116820180604052508101906118629190611f4b565b905083600101544311801561187657508015155b1561192257600084600101544361188d919061215a565b600d5486546004549293506000926118a5908561213b565b6118af919061213b565b6118b99190612119565b905060006006546005546103e86118d0919061215a565b6118da919061215a565b905060006103e86118eb838561213b565b6118f59190612119565b90508461190764e8d4a510008361213b565b6119119190612119565b61191b9087612101565b9550505050505b6001830154835464e8d4a510009061193b90859061213b565b6119459190612119565b61194f919061215a565b979650505050505050565b6000546001600160a01b031633146119845760405162461bcd60e51b815260040161048c9061209d565b6001600160a01b0381166119e95760405162461bcd60e51b815260206004820152602660248201527f4f776e61626c653a206e6577206f776e657220697320746865207a65726f206160448201526564647265737360d01b606482015260840161048c565b6119f281611ba9565b50565b6001546040516370a0823160e01b81523060048201526000916001600160a01b0316906370a082319060240160206040518083038186803b158015611a3957600080fd5b505afa158015611a4d573d6000803e3d6000fd5b505050506040513d601f19601f82011682018060405250810190611a719190611f4b565b905080821115611b085760015460405163a9059cbb60e01b81526001600160a01b038581166004830152602482018490529091169063a9059cbb906044015b602060405180830381600087803b158015611aca57600080fd5b505af1158015611ade573d6000803e3d6000fd5b505050506040513d601f19601f82011682018060405250810190611b029190611f15565b50505050565b60015460405163a9059cbb60e01b81526001600160a01b038581166004830152602482018590529091169063a9059cbb90604401611ab0565b505050565b6040516001600160a01b038316602482015260448101829052611b4190849063a9059cbb60e01b906064015b60408051601f198184030181529190526020810180516001600160e01b03166001600160e01b031990931692909217909152611c6d565b600080546001600160a01b038381166001600160a01b0319831681178455604051919092169283917f8be0079c531659141344cd1fd0a4f28419497f9722a3daafe3b4186f6b6457e09190a35050565b6040516001600160a01b0380851660248301528316604482015260648101829052611b029085906323b872dd60e01b90608401611b72565b6001600160a01b038116600090815260018301602052604081205415155b90505b92915050565b6000611c4f836001600160a01b038416611d3f565b6000611cc2826040518060400160405280602081526020017f5361666545524332303a206c6f772d6c6576656c2063616c6c206661696c6564815250856001600160a01b0316611d8e9092919063ffffffff16565b805190915015611b415780806020019051810190611ce09190611f15565b611b415760405162461bcd60e51b815260206004820152602a60248201527f5361666545524332303a204552433230206f7065726174696f6e20646964206e6044820152691bdd081cdd58d8d9595960b21b606482015260840161048c565b6000818152600183016020526040812054611d8657508154600181810184556000848152602080822090930184905584548482528286019093526040902091909155611c52565b506000611c52565b6060611d9d8484600085611da7565b90505b9392505050565b606082471015611e085760405162461bcd60e51b815260206004820152602660248201527f416464726573733a20696e73756666696369656e742062616c616e636520666f6044820152651c8818d85b1b60d21b606482015260840161048c565b843b611e565760405162461bcd60e51b815260206004820152601d60248201527f416464726573733a2063616c6c20746f206e6f6e2d636f6e7472616374000000604482015260640161048c565b600080866001600160a01b03168587604051611e72919061204e565b60006040518083038185875af1925050503d8060008114611eaf576040519150601f19603f3d011682016040523d82523d6000602084013e611eb4565b606091505b509150915061194f82828660608315611ece575081611da0565b825115611ede5782518084602001fd5b8160405162461bcd60e51b815260040161048c919061206a565b600060208284031215611f0a57600080fd5b8135611da0816121e4565b600060208284031215611f2757600080fd5b8151611da0816121f9565b600060208284031215611f4457600080fd5b5035919050565b600060208284031215611f5d57600080fd5b5051919050565b60008060408385031215611f7757600080fd5b823591506020830135611f89816121e4565b809150509250929050565b600080600060608486031215611fa957600080fd5b833592506020840135611fbb816121e4565b91506040840135611fcb816121e4565b809150509250925092565b600080600060608486031215611feb57600080fd5b83359250602084013591506040840135611fcb816121e4565b6000806000806080858703121561201a57600080fd5b84359350602085013592506040850135612033816121e4565b91506060850135612043816121f9565b939692955090935050565b60008251612060818460208701612171565b9190910192915050565b6020815260008251806020840152612089816040850160208701612171565b601f01601f19169190910160400192915050565b6020808252818101527f4f776e61626c653a2063616c6c6572206973206e6f7420746865206f776e6572604082015260600190565b9485526001600160a01b0393841660208601529190921660408401526060830191909152608082015260a00190565b60008219821115612114576121146121b8565b500190565b60008261213657634e487b7160e01b600052601260045260246000fd5b500490565b6000816000190483118215151615612155576121556121b8565b500290565b60008282101561216c5761216c6121b8565b500390565b60005b8381101561218c578181015183820152602001612174565b83811115611b025750506000910152565b60006000198214156121b1576121b16121b8565b5060010190565b634e487b7160e01b600052601160045260246000fd5b634e487b7160e01b600052603260045260246000fd5b6001600160a01b03811681146119f257600080fd5b80151581146119f257600080fdfea264697066735822122088dce03745b722a38ae39136849dc2b4a5419a3e582e7ca561cc1c6a335c58d564736f6c63430008070033",
  "devdoc": {
    "kind": "dev",
    "methods": {
      "harvest(uint256,address)": {
        "params": {
          "_pid": "The index of the pool. See `poolInfo`.",
          "_to": "Receiver of BEETHOVENX rewards."
        }
      },
      "owner()": {
        "details": "Returns the address of the current owner."
      },
      "renounceOwnership()": {
        "details": "Leaves the contract without owner. It will not be possible to call `onlyOwner` functions anymore. Can only be called by the current owner. NOTE: Renouncing ownership will leave the contract without an owner, thereby removing any functionality that is only available to the owner."
      },
      "transferOwnership(address)": {
        "details": "Transfers ownership of the contract to a new account (`newOwner`). Can only be called by the current owner."
      },
      "withdrawAndHarvest(uint256,uint256,address)": {
        "params": {
          "_amount": "LP token amount to withdraw.",
          "_pid": "The index of the pool. See `poolInfo`.",
          "_to": "Receiver of the LP tokens and BEETHOVENX rewards."
        }
      }
    },
    "version": 1
  },
  "userdoc": {
    "kind": "user",
    "methods": {
      "harvest(uint256,address)": {
        "notice": "Harvest proceeds for transaction sender to `to`."
      },
      "lpTokens(uint256)": {
        "notice": "Address of the LP token for each MCV2 pool."
      },
      "rewarder(uint256)": {
        "notice": "Address of each `IRewarder` contract in MCV2."
      },
      "withdrawAndHarvest(uint256,uint256,address)": {
        "notice": "Withdraw LP tokens from MCV2 and harvest proceeds for transaction sender to `to`."
      }
    },
    "version": 1
  },
  "storageLayout": {
    "storage": [
      {
        "astId": 9847,
        "contract": "contracts/BeethovenxMasterChef.sol:BeethovenxMasterChef",
        "label": "_owner",
        "offset": 0,
        "slot": "0",
        "type": "t_address"
      },
      {
        "astId": 10024,
        "contract": "contracts/BeethovenxMasterChef.sol:BeethovenxMasterChef",
        "label": "beetx",
        "offset": 0,
        "slot": "1",
        "type": "t_contract(BeethovenxToken)9967"
      },
      {
        "astId": 10026,
        "contract": "contracts/BeethovenxMasterChef.sol:BeethovenxMasterChef",
        "label": "devAddress",
        "offset": 0,
        "slot": "2",
        "type": "t_address"
      },
      {
        "astId": 10028,
        "contract": "contracts/BeethovenxMasterChef.sol:BeethovenxMasterChef",
        "label": "treasuryAddress",
        "offset": 0,
        "slot": "3",
        "type": "t_address"
      },
      {
        "astId": 10030,
        "contract": "contracts/BeethovenxMasterChef.sol:BeethovenxMasterChef",
        "label": "beetxPerBlock",
        "offset": 0,
        "slot": "4",
        "type": "t_uint256"
      },
      {
        "astId": 10035,
        "contract": "contracts/BeethovenxMasterChef.sol:BeethovenxMasterChef",
        "label": "devPercent",
        "offset": 0,
        "slot": "5",
        "type": "t_uint256"
      },
      {
        "astId": 10037,
        "contract": "contracts/BeethovenxMasterChef.sol:BeethovenxMasterChef",
        "label": "treasuryPercent",
        "offset": 0,
        "slot": "6",
        "type": "t_uint256"
      },
      {
        "astId": 10041,
        "contract": "contracts/BeethovenxMasterChef.sol:BeethovenxMasterChef",
        "label": "poolInfo",
        "offset": 0,
        "slot": "7",
        "type": "t_array(t_struct(PoolInfo)10021_storage)dyn_storage"
      },
      {
        "astId": 10046,
        "contract": "contracts/BeethovenxMasterChef.sol:BeethovenxMasterChef",
        "label": "lpTokens",
        "offset": 0,
        "slot": "8",
        "type": "t_array(t_contract(IERC20)77)dyn_storage"
      },
      {
        "astId": 10049,
        "contract": "contracts/BeethovenxMasterChef.sol:BeethovenxMasterChef",
        "label": "lpTokenAddresses",
        "offset": 0,
        "slot": "9",
        "type": "t_struct(AddressSet)905_storage"
      },
      {
        "astId": 10054,
        "contract": "contracts/BeethovenxMasterChef.sol:BeethovenxMasterChef",
        "label": "rewarder",
        "offset": 0,
        "slot": "11",
        "type": "t_array(t_contract(IRewarder)9998)dyn_storage"
      },
      {
        "astId": 10061,
        "contract": "contracts/BeethovenxMasterChef.sol:BeethovenxMasterChef",
        "label": "userInfo",
        "offset": 0,
        "slot": "12",
        "type": "t_mapping(t_uint256,t_mapping(t_address,t_struct(UserInfo)10014_storage))"
      },
      {
        "astId": 10064,
        "contract": "contracts/BeethovenxMasterChef.sol:BeethovenxMasterChef",
        "label": "totalAllocPoint",
        "offset": 0,
        "slot": "13",
        "type": "t_uint256"
      },
      {
        "astId": 10066,
        "contract": "contracts/BeethovenxMasterChef.sol:BeethovenxMasterChef",
        "label": "startBlock",
        "offset": 0,
        "slot": "14",
        "type": "t_uint256"
      }
    ],
    "types": {
      "t_address": {
        "encoding": "inplace",
        "label": "address",
        "numberOfBytes": "20"
      },
      "t_array(t_bytes32)dyn_storage": {
        "base": "t_bytes32",
        "encoding": "dynamic_array",
        "label": "bytes32[]",
        "numberOfBytes": "32"
      },
      "t_array(t_contract(IERC20)77)dyn_storage": {
        "base": "t_contract(IERC20)77",
        "encoding": "dynamic_array",
        "label": "contract IERC20[]",
        "numberOfBytes": "32"
      },
      "t_array(t_contract(IRewarder)9998)dyn_storage": {
        "base": "t_contract(IRewarder)9998",
        "encoding": "dynamic_array",
        "label": "contract IRewarder[]",
        "numberOfBytes": "32"
      },
      "t_array(t_struct(PoolInfo)10021_storage)dyn_storage": {
        "base": "t_struct(PoolInfo)10021_storage",
        "encoding": "dynamic_array",
        "label": "struct BeethovenxMasterChef.PoolInfo[]",
        "numberOfBytes": "32"
      },
      "t_bytes32": {
        "encoding": "inplace",
        "label": "bytes32",
        "numberOfBytes": "32"
      },
      "t_contract(BeethovenxToken)9967": {
        "encoding": "inplace",
        "label": "contract BeethovenxToken",
        "numberOfBytes": "20"
      },
      "t_contract(IERC20)77": {
        "encoding": "inplace",
        "label": "contract IERC20",
        "numberOfBytes": "20"
      },
      "t_contract(IRewarder)9998": {
        "encoding": "inplace",
        "label": "contract IRewarder",
        "numberOfBytes": "20"
      },
      "t_mapping(t_address,t_struct(UserInfo)10014_storage)": {
        "encoding": "mapping",
        "key": "t_address",
        "label": "mapping(address => struct BeethovenxMasterChef.UserInfo)",
        "numberOfBytes": "32",
        "value": "t_struct(UserInfo)10014_storage"
      },
      "t_mapping(t_bytes32,t_uint256)": {
        "encoding": "mapping",
        "key": "t_bytes32",
        "label": "mapping(bytes32 => uint256)",
        "numberOfBytes": "32",
        "value": "t_uint256"
      },
      "t_mapping(t_uint256,t_mapping(t_address,t_struct(UserInfo)10014_storage))": {
        "encoding": "mapping",
        "key": "t_uint256",
        "label": "mapping(uint256 => mapping(address => struct BeethovenxMasterChef.UserInfo))",
        "numberOfBytes": "32",
        "value": "t_mapping(t_address,t_struct(UserInfo)10014_storage)"
      },
      "t_struct(AddressSet)905_storage": {
        "encoding": "inplace",
        "label": "struct EnumerableSet.AddressSet",
        "members": [
          {
            "astId": 904,
            "contract": "contracts/BeethovenxMasterChef.sol:BeethovenxMasterChef",
            "label": "_inner",
            "offset": 0,
            "slot": "0",
            "type": "t_struct(Set)604_storage"
          }
        ],
        "numberOfBytes": "64"
      },
      "t_struct(PoolInfo)10021_storage": {
        "encoding": "inplace",
        "label": "struct BeethovenxMasterChef.PoolInfo",
        "members": [
          {
            "astId": 10016,
            "contract": "contracts/BeethovenxMasterChef.sol:BeethovenxMasterChef",
            "label": "allocPoint",
            "offset": 0,
            "slot": "0",
            "type": "t_uint256"
          },
          {
            "astId": 10018,
            "contract": "contracts/BeethovenxMasterChef.sol:BeethovenxMasterChef",
            "label": "lastRewardBlock",
            "offset": 0,
            "slot": "1",
            "type": "t_uint256"
          },
          {
            "astId": 10020,
            "contract": "contracts/BeethovenxMasterChef.sol:BeethovenxMasterChef",
            "label": "accBeetxPerShare",
            "offset": 0,
            "slot": "2",
            "type": "t_uint256"
          }
        ],
        "numberOfBytes": "96"
      },
      "t_struct(Set)604_storage": {
        "encoding": "inplace",
        "label": "struct EnumerableSet.Set",
        "members": [
          {
            "astId": 599,
            "contract": "contracts/BeethovenxMasterChef.sol:BeethovenxMasterChef",
            "label": "_values",
            "offset": 0,
            "slot": "0",
            "type": "t_array(t_bytes32)dyn_storage"
          },
          {
            "astId": 603,
            "contract": "contracts/BeethovenxMasterChef.sol:BeethovenxMasterChef",
            "label": "_indexes",
            "offset": 0,
            "slot": "1",
            "type": "t_mapping(t_bytes32,t_uint256)"
          }
        ],
        "numberOfBytes": "64"
      },
      "t_struct(UserInfo)10014_storage": {
        "encoding": "inplace",
        "label": "struct BeethovenxMasterChef.UserInfo",
        "members": [
          {
            "astId": 10011,
            "contract": "contracts/BeethovenxMasterChef.sol:BeethovenxMasterChef",
            "label": "amount",
            "offset": 0,
            "slot": "0",
            "type": "t_uint256"
          },
          {
            "astId": 10013,
            "contract": "contracts/BeethovenxMasterChef.sol:BeethovenxMasterChef",
            "label": "rewardDebt",
            "offset": 0,
            "slot": "1",
            "type": "t_uint256"
          }
        ],
        "numberOfBytes": "64"
      },
      "t_uint256": {
        "encoding": "inplace",
        "label": "uint256",
        "numberOfBytes": "32"
      }
    }
  }
}